:100000000C9478050C94BF050C94BF050C94051C4A
:100010000C94BF050C94BF050C94BF050C94BF0550
:100020000C94BF050C94BF050C949A2D0C946E2E65
:100030000C9496280C94BF050C94BF050C94BF0536
:100040000C94BF050C94BF050C94BF050C94BF0520
:100050000C94BF050C94ED280C94BF050C94BF05BF
:100060000C94BF050C94BF050C94BF050C94BF0500
:100070000C94BF050C94BF050C94BF050C94BF05F0
:100080000C94BF050C94BF050C94BF050C94BF05E0
:100090000C94BF050C94BF050C94BF050C94BF05D0
:1000A0000C94BF050C94BF050C94BF0529001E00DD
:1000B0001F002000210022002B0014001A0008005D
:1000C00015001700E00004001600070009000A00F0
:1000D000E1001D001B000600190005000000E20001
:1000E000E3002A5D2C00A80035002700260025002B
:1000F000240023002D00130012000C0018001C0027
:10010000340033000F000E000D000B00E500380036
:1001100037003600100011000000E7002A002B5DB8
:100120002800300001000100010001000100010071
:100130003A003B003C003D003E003F0035001E02FF
:100140001F02200221022202010001000100010021
:100150000100010000000100010001000100010098
:100160000100010001000100010001004500440000
:1001700043004200410040003502270226022502CA
:1001800024022302310230022F022E022D0200002F
:100190000000010001000100010001000100010058
:1001A000010001000100010035001E001F002000B9
:1001B000210022003A003B003C003D003E003F0091
:1001C000400041004200430044004500000001009F
:1001D0000100010001000100010001000100010017
:1001E0000100010001002700260025002400230053
:1001F00000004F005200510050000000310030005C
:100200002F002E002D002E02000001000100010031
:1002100001000100000000000000000000000000DC
:1002200000000000000000000000000000000000CE
:1002300000000000000000000000000000000000BE
:1002400000000000000001000100010001000000AA
:10025000CE5CD05CD25CD45CD65C0000CF5CD15C60
:10026000D35CD55C00000000CA5CC85CC65CC35CA3
:1002700000000000CB5CC95CC75CC45C00000000EF
:100280000000010001000100010000001E0F050038
:10029000047F3F1F643214643214783C1E1E140A1B
:1002A000052223252628292A2C2D2F3032333536B6
:1002B000383A3B3D3E4042434547494A4C4E5051F7
:1002C000535557595A5C5E6062646668696B6D6F1E
:1002D00071737577797B7D7F81838587898A8C8E21
:1002E00090929496989A9C9E9FA1A3A5A7A8AAAC29
:1002F000AEAFB1B3B4B6B8B9BBBCBEBFC1C2C3C563
:10030000C6C7C9CACBCCCDCED0D1D2D2D3D4D5D604
:10031000D7D7D8D9D9DADADBDBDBDCDCDCDCDCDD37
:10032000DDDDDDDCDCDCDCDCDBDBDBDADAD9D9D81B
:10033000D7D7D6D5D4D3D2D2D1D0CECDCCCBCAC9B3
:10034000C7C6C5C3C2C1BFBEBCBBB9B8B6B4B3B1E2
:10035000AFAEACAAA8A7A5A3A19F9E9C9A9896947D
:1003600092908E8C8A89878583817F7D7B79777552
:1003700073716F6D6B6968666462605E5C5A595731
:10038000555351504E4C4A4947454342403E3D3BF0
:100390003A3836353332302F2D2C2A29282625237A
:1003A00022FFAA7F55400001010101010101010165
:1003B0000202020202020202020303030303030316
:1003C00003040404040404040505050505060606E3
:1003D0000606070707070708080808090909090AA0
:1003E0000A0A0B0B0B0C0C0C0D0D0D0E0E0E0F0F45
:1003F0000F101011111112121313141415151616D3
:100400001717181819191A1A1B1B1C1D1D1E1E1F41
:100410002020212222232424252626272829292A90
:100420002B2C2D2D2E2F30313232333435363738B8
:10043000393A3B3C3D3E3F404142434445464748B4
:10044000494A4C4D4E4F50515354555658595A5B8A
:100450005D5E5F616264656668696B6C6D6F70722A
:10046000737577787A7B7D7E8082838587888A8C96
:100470008E8F91939596989A9C9EA0A2A3A5A7A9CA
:10048000ABADAFB1B3B5B7BABCBEC0C2C4C6C9CBC1
:10049000CDCFD1D4D6D8DBDDDFE2E4E7E9EBEEF077
:1004A000F3F5F8FAFDFF00AE00AF00DA0281FFD9E4
:1004B000F1DB20A4A62EAF00A0C000A1C800AED5DD
:1004C00080A81FD300408D14200000000000000011
:1004D0003E5B4F5B3E003E6B4F6B3E001C3E7C3EE6
:1004E0001C00183C7E3C18001C577D571C001C5EED
:1004F0007F5E1C0000183C180000FFE7C3E7FF0008
:10050000001824180000FFE7DBE7FF0030483A0638
:100510000E00262979292600407F05050700407F27
:1005200005253F005A3CE73C5A007F3E1C1C080052
:10053000081C1C3E7F0014227F2214005F5F005FB6
:100540005F0006097F017F00006689956A00606090
:100550006060600094A2FFA2940008047E0408007A
:1005600010207E20100008082A1C0800081C2A08F9
:1005700008001E10101010000C1E0C1E0C0030384D
:100580003E383000060E3E0E06000000000000005F
:1005900000005F000000000700070000147F147FC8
:1005A0001400242A7F2A12002313086462003649AB
:1005B00056205000000807030000001C22410000E4
:1005C0000041221C00002A1C7F1C2A0008083E084B
:1005D00008000080703000000808080808000000CB
:1005E000606000002010080402003E5149453E00B2
:1005F00000427F4000007249494946002141494D6F
:1006000033001814127F10002745454539003C4A35
:10061000494931004121110907003649494936004D
:10062000464949291E000000140000000040340023
:100630000000000814224100141414141400004196
:10064000221408000201590906003E415D594E007E
:100650007C1211127C007F49494936003E414141DC
:1006600022007F4141413E007F49494941007F09C5
:10067000090901003E41415173007F0808087F00CD
:1006800000417F4100002040413F01007F081422CB
:1006900041007F40404040007F021C027F007F04F9
:1006A00008107F003E4141413E007F0909090600D4
:1006B0003E4151215E007F091929460026494949DA
:1006C000320003017F0103003F4040403F001F20F4
:1006D00040201F003F4038403F006314081463006F
:1006E0000304780403006159494D4300007F4141F0
:1006F0004100020408102000004141417F00040233
:100700000102040040404040400000030708000090
:100710002054547840007F284444380038444444EE
:100720002800384444287F003854545418000008E6
:100730007E0902001824241C78007F080404780035
:1007400000447D4000002040403D00007F102844D0
:10075000000000417F4000007C04780478007C08A1
:10076000040478003844444438007C1824241800D9
:10077000182424187C007C080404080048545454AD
:10078000240004043F4424003C4040207C001C2002
:1007900040201C003C4030403C00442810284400CD
:1007A0004C9090907C004464544C440000083641C6
:1007B0000000000077000000004136080000020140
:1007C000020402003C2623263C00000000000080BA
:1007D000808080000000000080E070180C1830E07D
:1007E00080000010F8901030783010B8FC381000FD
:1007F0000000000000F8FCF800000000000000000D
:1008000000000000001C9C1C00000000F8FCF80028
:1008100000000000001CFCF8C00000000000008088
:10082000E0F87C1C000000F0FCFCFC1C1C1C1C1CE8
:100830001C1C1C000000000000C0F0F8381C1C1C30
:100840001C1C1C3CF8F0E000E0F0F0F0E0ECEEF7EF
:10085000F37020007C7C7C7E007E7E7E7F7F7F002C
:100860000080C0E07E5B4F5BFEC00000C000DCD7B4
:10087000DEDEDED7DC00C00000000000000000006B
:100880000000000000000000000000000000000F59
:10089000BCE0818181838382870C183060C00000B6
:1008A0001FFE90B9FFBB91983C1811133F11000037
:1008B0000000000000FFFFFF00000000000000003B
:1008C0000000000000FFFFFF00000000FFFFFF002E
:1008D00000000000000000030F7FF8E080F0FC3F04
:1008E0000F0100000000003F3F3F1C1C1C1C1C3C73
:1008F00078F8F0E08000000000C3E7FF7E3C387825
:10090000787070F8FFDF87000F1F3F7F7F7F7F7F4A
:100910003F1E0C001F1F1F3F003F3F3F7F7F7F0098
:10092000307B7F7830202030787F3B0003000F7FC2
:100930000F0F0F7F0F0003000000000000000000F9
:1009400000000000000000000000183C2466634125
:10095000C18180808080808081C14162386C4CC6BA
:100960008181808080808081C14362361C180000B4
:100970000000000000FFFFFFC0C0C0C0C0C0C0C07A
:10098000C0800000007FFF7F000000007FFFFFC0ED
:1009900080000000E0E0C0C0C0E0F97F1F07000059
:1009A0000000000000000070F0E0E0C0C0C0C0E047
:1009B000F0F87F3F0F0000000F3F7FF9E0E0C0C07C
:1009C000C0C0C0E0F97F3F1F000000000000000031
:1009D0000000000000000000000000000000000017
:1009E0000000000000000000000000000000000007
:1009F00000000000000000000000000000000000F7
:100A0000000000000000000000000E034C00690020
:100A10006C00790035003800000010036C0069009C
:100A20006C00690075006D00730000000403090488
:100A300009023B00020100A0FA09040000010301C1
:100A4000010009211101000122400007058103086E
:100A5000000A09040100010300000009211101003E
:100A6000012232000705820320000A120110010052
:100A7000000008D8042DEB00010102000105010966
:100A800080A101850319012AB700150126B7009539
:100A90000175108100C0050C0901A101850419012F
:100AA0002AA002150126A002950175108100C0053B
:100AB000010906A101050719E029E715002501959F
:100AC0000875018102950175088101050719002942
:100AD000FF150026FF00950675088100050819011D
:100AE0002905950575019102950175039101C000D5
:100AF00011241FBECFEFDAE0DEBFCDBF04B603FE88
:100B000027C08091CD069091CE06A091CF06B091DE
:100B1000D0068730904BA740B04BD1F41092CD0651
:100B20001092CE061092CF061092D00614BE84B753
:100B3000877F84BF0FB6F894A89580916000886184
:100B400080936000109260000FBEE0E0F8E309952A
:100B500012E0A0E0B1E0E4E5F9E602C005900D92F4
:100B6000A63CB107D9F726E0A6ECB2E001C01D9281
:100B7000AD3CB207E1F70E94D42A0C9470340C9477
:100B8000000080912A0490912B04A0912C04B09134
:100B90002D0484309105A105B105E1F128F50097F8
:100BA000A105B10571F168E971E082309105A105F7
:100BB000B10549F1BF93AF939F938F9383EB91E07E
:100BC0009F938F931F9288E18F938BE494E09F9380
:100BD0008F930E9433318DB79EB70A960FB6F89463
:100BE0009EBF0FBE8DBF13C088309105A105B10512
:100BF00029F08E309105A105B105E1F665EA71E0B5
:100C000002C06CE771E08BE494E00E942C318BE42D
:100C100094E008956BE871E0F6CF84E091E00895E8
:100C2000CF93C0E28C33910520F4FC01EB52FE4FD0
:100C3000C0811F92CF939F938F93FB0180811F925E
:100C40008F9381811F928F9384EC91E09F938F9378
:100C50001F9288E18F938FED92E09F938F930E9474
:100C600033318DB79EB70E960FB6F8949EBF0FBE68
:100C70008DBF8091C8029091C902449761F410928F
:100C8000C9021092C802EAECF2E080E2819392E09D
:100C9000EE3DF907D9F78091C8029091C902FC0195
:100CA000E653FD4FC08301969093C9028093C8021A
:100CB000CF9108958FED92E008958AEC92E0089527
:100CC0000C94A406CF93DF93D62FC42F0E94F12457
:100CD000882351F08D2F0E94F124882329F08C2F36
:100CE000DF91CF910C9411258C2FDF91CF910C9433
:100CF000322580917B04869590E0909364048093E4
:100D000063040895CF93C82F0E94320B811101C054
:100D1000C2E08C2FCF9108950E94320B882379F086
:100D20000E94C10560E00E9478160E945A0660E0A9
:100D30000E9478160E945D0660E00C9478160E946E
:100D40000D0660E00C945C160F931F93CF93DF9316
:100D50008C01EB018A81882319F0C8010E941006DA
:100D60000A328DE5180709F150F409321D45A9F042
:100D7000C1E08C2FDF91CF911F910F9108950B321D
:100D80008DE51807F1F00C321D4591F7CA8183E01B
:100D9000CC2311F10E94112506C0CA81CC2349F34E
:100DA00080E00E944407C0E0E4CFCA8181E0CC2308
:100DB00059F00E94112543E062E081E00E94620642
:100DC000F2CFCA8182E0F3CF0E94322543E062E095
:100DD00081E00E946206CDCF0E943225CACF8111E8
:100DE00006C089EA611101C08AEA0C941C1F0895AB
:100DF00081E0089508950C94FA061F93CF93DF9332
:100E000000D000D00F92CDB7DEB749835A836B83F1
:100E10003091C90389819A8131111DC06623B9F0CF
:100E20002223A9F00E940426182F682F89819A8115
:100E30000E94AD2569817A81812F0F900F900F90CC
:100E40000F900F90DF91CF911F910C94C2070E94D9
:100E5000DB25182FEFCF0E94042669817A81EDCF20
:100E6000FC01262F408151816281738184810C9421
:100E7000FD06CF93DF93EC0160E00E943007BE01D6
:100E8000DF91CF910C94FB06CF93DF93C1E0D0E0CC
:100E900002C0CC0FDD1F8A95E2F78C2F0E945027ED
:100EA000BE0190E080E0DF91CF910C948F240E94EE
:100EB0003D27811102C00E94E6270C949C090C94E6
:100EC0009F0908950E9481210E9461072FEF84E30A
:100ED0009CE0215080409040E1F700C000000C945D
:100EE0005B290F931F93CF93DF93EC0161E00E9486
:100EF00030078C01BE010E946006882359F1BE01B3
:100F0000C8010E944C18882329F1BE01C8010E9423
:100F10009E188823F9F0BE01C8010E94C1198823D8
:100F2000C9F0BE01C8010E949B13882399F08A81F1
:100F3000882339F001158CE5180751F00F3D1C4549
:100F400079F0CE01DF91CF911F910F910C94F806AB
:100F50000E94620780E0DF91CF911F910F91089569
:100F60000E94E627F7CF08950C94B30781E0089517
:100F70000C94B607CF93C82F0E94B4078C2FCF9143
:100F80000C94B807972F70E026E0929F600D711DBA
:100F90001124FB019CE3899FE00DF11D1124EE0F4C
:100FA000FF1FE455FF4F859194910895CF93DF93F0
:100FB0000E94C2070E94C208EC01811522E5920737
:100FC000E8F5811531E5930708F0ACC0883E91053E
:100FD00010F5803E910570F5883A910570F4853AD8
:100FE000910508F078C08130910521F1009711F149
:100FF000049700F5D0E0C0E01DC08F3B9105D0F70D
:10100000C85AD0E0CC0FDD1FCF5EDD4F0990D881EC
:10101000C02DD4640FC0811540E5940708F066C068
:10102000C11580E4D80708F05EC0CE019A958115FD
:101030009F4100F7CE01DF91CF910895811536E5EC
:10104000930718F5811545E5940708F083C0C1158D
:1010500084E5D80708F079C09C2F969596959E0157
:1010600023703327C115D34508F461C0C1E0D0E037
:1010700002C0CC0FDD1F2A95E2F730E2939FC0013A
:101080001124C82BD92BDA68D5CFC1158AE5D8072A
:1010900078F4C11599E5D90708F066C0C11528E5AF
:1010A000D20708F4A7CFDC2FCC27C06FD06AC2CFFD
:1010B000CE0190568115904208F09CCF8D2F8F71F4
:1010C0000E94590990E0982F882788279F719C01DA
:1010D0002C2BE90147C0C55AD0E0C15CDD4FC88167
:1010E000D0E0D064A7CFDF70D06AA4CFE4E09695BB
:1010F0008795EA95E1F783702C2F26952695237026
:1011000040E2249F90011124382B8C2F8370C1E082
:10111000D0E002C0CC0FDD1F8A95E2F7C22BD32BA3
:10112000DC6888CFD82FCC27C16FD06A83CFC1E0CD
:10113000D0E002C0CC0FDD1F2A95E2F720E2929F9B
:10114000C0011124C82BD92BEBCFDC2FCC27C46FC7
:10115000D06A70CF0E945909C82FD0E0DC2FCC276D
:10116000CC27DF71D06266CF8C2F8F700E94590917
:1011700034E0D695C7953A95E1F7CF709C2FEC01F6
:10118000D06958CF82389105B1F1B0F4813391051F
:1011900009F475C048F48932910509F469C08A32AE
:1011A000910509F473C008958533910509F459C078
:1011B0008933910501F10895833E9105A9F138F431
:1011C000803E9105F9F0823E910549F10895863EF1
:1011D0009105A9F1873E9105C9F1843E910519F564
:1011E0002091BF0621FF1FC08091BE0684FD14C060
:1011F00087EE90E008952091BE062370A1F080EE66
:1012000090E008952091BE0620FD47C03091BF06B2
:1012100030FF09C024FF44C090E080E004C020916A
:10122000BE0622FDF7CF08952091BE0622FD3BC0E9
:101230003091BF0630FDE3CF24FFF5CFEDCF2091F5
:10124000BE0623FFF0CF24FDE7CFD2CF2091BE060C
:1012500023FD2CC03091BF0631FFEECF84EE90E02D
:1012600008952091BE0625FFDECF89E290E0089523
:101270002091BE0625FFD7CF85E390E00895209109
:10128000BE0626FFD0CF8AE290E008952091BE06E8
:1012900026FFC9CF81E390E0089589E390E00895A7
:1012A00083EE90E0089582EE90E0089586EE90E05F
:1012B00008959091BE0692FF06C0282F287128300D
:1012C000F9F4877F846093FF06C0282F28712831A6
:1012D000F1F4877E84612091BF0620FF06C0382F7D
:1012E00038713830D9F4877F816021FF06C0282FFC
:1012F00028712831D1F4877E816194FD877E08951D
:10130000282F24712430F9F68B7F8860DCCF282FBA
:101310002471243101F78B7E8861DDCF382F317144
:10132000313019F78E7F8860E0CF282F217121316D
:1013300021F78E7E8861E1CF0C94790608950C9494
:101340009E09E82FF0E0E159FB4F80810895089550
:1013500080EA8A95F1F7089500C008950C94A809D1
:10136000F894E82FE295EF70F0E031A1282F2F706C
:1013700081E090E001C0880F2A95EAF7982F9095B8
:10138000932391A392A1892B82A378940895089521
:101390000E94500B809144018091440195E081119D
:1013A00090E090937A0485E0891B8093790486E627
:1013B0000E94B00987E90E94B00986EC0E94B0093A
:1013C00084E30E94B00985E30E94B00986EF0E9481
:1013D000B00987EF0E94B00981E30E94B00983E35E
:1013E0000E94B00982E30E94B00986E30E94B0091E
:1013F000E5E6F4E0AFE6B4E08FE694E011921D92EA
:101400008E179F07D9F785E00E94FB0A0E945707B5
:101410000C94650BFF920F931F93CF93DF9300D033
:1014200000D00F92CDB7DEB70E94320BF82E60913C
:101430007A04882309F450C08E010F5F1F4F85E0A6
:10144000F80111928A95E9F7862F90E0B801815949
:101450009B4F0E94141A811122C08091F7028F5F66
:101460008093F7028630B0F1E0917904F0E0E15921
:10147000FB4FD801CE01069611921D92A817B9070D
:10148000D9F70E945F078F2D0F900F900F900F904C
:101490000F90DF91CF911F910F91FF9008951092BF
:1014A000F702A0917904B0E0A159BB4F9E012A5FD9
:1014B0003F4FF12C4D91F80191918F01491731F077
:1014C000AD0141505109FA019083F82E021713071C
:1014D00089F7D7CFF12CD5CF70E061597B4F809140
:1014E000790490E081599B4F0E94431A0E94C709DA
:1014F000CACFCF92DF92EF92FF920F931F93CF93B9
:10150000DF9308E412E085E6E82E84E0F82EC0E0E0
:10151000CC24C394D12CF80181918F01F894E82F49
:10152000E295EF70F0E021A18F70A60102C0440F98
:10153000551F8A95E2F7CA01922F982B91A392A189
:101540008095892382A378940E94AC09E2E4F2E0BA
:1015500030E020E0D0E04191A42FA295AF70B0E040
:1015600090968C9190E04F7002C0959587954A9522
:10157000E2F780FD3CC08C2D022E01C0880F0A943A
:10158000EAF7D82B2F5F3F4F2630310521F7F801BE
:10159000319780810E94B0090E94AE09F7018081D5
:1015A000D81739F1D08381E0C82BFFEFEF1AFF0A7B
:1015B00042E00D34140709F0AECF60917A0470E078
:1015C00061597B4F2C2F45E085E694E00E94FC0A90
:1015D0000E940A0AC11101C0C82F8C2FDF91CF9140
:1015E0001F910F91FF90EF90DF90CF90089580E0D2
:1015F000C8CF80E0D9CF0895FF920F931F93CF9368
:10160000DF93F82E092F162FD72FC42F222349F04E
:1016100081E08093FA020E94C6289093F902809399
:10162000F8028091FA028823A1F08091F80290914B
:10163000F9020E94DE28069760F0EF2DF02FA12F0F
:10164000BD2FCE0FDF2FD11DEC17FD0741F41092F7
:10165000FA02DF91CF911F910F91FF900895819130
:101660008D93F2CF8091FB02811111C08091D8003F
:1016700080618093D8008AE18A95F1F700C090914B
:10168000D900892F817090FF82E08093FB0281E076
:101690009091FB02913009F080E008950C94320B98
:1016A0000E944E0B809344018091440168E088239E
:1016B00049F080E00E94050C0E94320B882321F043
:1016C0000C94EB1988E0F6CF08950E94320B81113B
:1016D00002C00C94F1190895EF92FF920F931F939B
:1016E000CF93DF93EB01E82FD11110C0442321F0F9
:1016F000F0E0EA55FC4FE4916E2F7E2F8E2FDF91A4
:10170000CF911F910F91FF90EF9008950D2F10E052
:10171000282F30E0442329F02A553C4FF901249129
:1017200030E0F6E0CF9FC0011124EFEFF0E0BF0101
:101730000E942C30AB018C2F90E0880F991FA5E5FB
:10174000A49FB001A59F700D1124861B970B982FA5
:10175000990F980FBF01601B710B629FD001639FAF
:10176000B00D729FB00D11248B2F9D9FB0011124DD
:10177000672F7727EF01C61BD70BBE01629FE001E1
:10178000639FD00D729FD00D11247F01E91AF108DB
:10179000E09EB001E19E700DF09E700D1124672F48
:1017A0007727E61BF70BE29F8001E39F100DF29F66
:1017B000100D1124E12F722F4230510599F048F499
:1017C0004115510569F04130510581F0EB2F8D2F06
:1017D00007C04430510569F080F046305105B1F73B
:1017E0006E2F8DCFE22F7B2F812FFACFE22F7D2F0F
:1017F000F7CFEB2F822F712FF3CF7B2F822FED2F7F
:10180000EFCF41E00C946C0B0895E8E4F1E08083A5
:10181000618308950C94010CCF93DF93762FE90137
:10182000682F842F0E940A0C798368838A83DF9152
:10183000CF91089580917B04982F9E7F29F4817029
:10184000826080937B0408958635E8F38170846517
:10185000F8CF88E090E00C94DA33CF92DF92EF92E9
:10186000FF926B017C010E941A0CB701A60188E06F
:1018700090E0FF90EF90DF90CF900C94F833EBE77F
:10188000F4E083E0808311828FEF8283838314826C
:10189000ABE5B3E012968C911297836012968C930D
:1018A00060817181828193810C942D0C80917B04E5
:1018B00080FF02C08695089580E0089590917F048E
:1018C000933018F49F5F90937F04882351F06091C8
:1018D0007B0470917C0480917D0490917E040C9433
:1018E0002D0C089581E00C945E0C90917F04992357
:1018F00019F0915090937F04882351F060917B04FC
:1019000070917C0480917D0490917E040C942D0C48
:10191000089581E00C94750C70E00C940A146091A9
:10192000490180917B0480FF0AC08091480123E037
:10193000829FC001112480589B4F0C948C0C809185
:101940004A0190914B0123E0829FF0011124E0585D
:10195000FB4F891750F71182108212828F5F3396E6
:10196000F8CF90917B0490FF14C090914A01209190
:101970004B0133E0939FF0011124E058FB4F921785
:1019800010F00C948F0C8183608342839F5F3396A9
:10199000F6CF0895CF93DF9300D00F92CDB7DEB787
:1019A00090917B0490FF0AC09E012F5F3F4F0E94E1
:1019B0000C0C4B8169818A810E94B10C0F900F90B1
:1019C0000F90DF91CF910895CF93DF93EC01EC81DD
:1019D000F0E0EF55FD4F4491EBE7F4E06281818147
:1019E0000E94CA0C8C818F5F8C83DF91CF91089508
:1019F000CF93DF93EC01EBE7F4E0438162818C81CC
:101A00000E94CA0C8C818F5F8C83DF91CF910895E7
:101A10000F931F93CF93DF9300D00F92CDB7DEB714
:101A20008C018091FC0281110AC09E012F5F3F4F03
:101A30004FEF6FEF0E940C0C8A818093FC02F8013B
:101A40006481613069F08091FC0240E0662361F0BE
:101A500040E0623011F44091FC0280E060E004C09C
:101A60006091FC0240E080E00E94B10CF8018481AA
:101A700090E0019663E070E00E94403084830F9014
:101A80000F900F90DF91CF911F910F910895AF921A
:101A9000BF92CF92DF92EF92FF920F931F93CF935B
:101AA000DF9300D00F92CDB7DEB7182FF62E042F9C
:101AB000E22E90917B0490FF3AC0E92FE695AE2F7D
:101AC000B0E0AE5ABD4F8C9180935B039E7F923005
:101AD000E1F59E012F5F3F4F812F0E940C0C4B813F
:101AE00069818A810E94B10C80917C04811308C0B5
:101AF00080917D048F1104C080917E04801729F0AD
:101B000080915D03826080935D0310937C04F0926A
:101B10007D0400937E04EE2051F060917B0470916F
:101B20007C0480917D0490917E040E942D0C0F9086
:101B30000F900F90DF91CF911F910F91FF90EF9039
:101B4000DF90CF90BF90AF900895823019F400914C
:101B50007E04CACF863019F410917C04C5CF893039
:101B6000D9F3893109F6E9518E2F8170D82EE69587
:101B7000F0E0EF55FC4FA590B490C12CBB246091D0
:101B80004C01C61618F00E948F0CAECF2C2D30E001
:101B9000A29EC001A39E900DB29E900D112470E0F4
:101BA0000E942C30812FD11013C0860F40914A0122
:101BB000420F532F511D9A01220F331F240F351F3F
:101BC00020583B4F402F6F2D0E940C0CC394D7CF51
:101BD000861BECCFEBE7F4E09181282F43816281F3
:101BE00088E0890F0C94470D81E00C94EA0DEBE737
:101BF000F4E09181282F4381628188EF890F0C9452
:101C0000470D81E00C94F70DEBE7F4E0628121E1F0
:101C1000620F08F46FEF282F438181810C94470DE8
:101C200081E00C94040EEBE7F4E0628121E1621B99
:101C300008F460E0282F438181810C94470D81E0F6
:101C40000C94130EEBE7F4E0438121E1420F08F41A
:101C50004FEF282F628181810C94470D81E00C9415
:101C6000220EEBE7F4E0438121E1421B08F440E05F
:101C7000282F628181810C94470D81E00C94310EF4
:101C800020E00C94470DEF92FF921F93CF93DF93C8
:101C9000EC0110E0EE24EA94F12C60914C0116174F
:101CA00070F00E948F0C9A818C8190FF27C08F5F0B
:101CB0008C83DF91CF911F91FF90EF900895209139
:101CC0004A01422F410F5527551FCA019A01220F81
:101CD000331F280F391F20583B4F70E0C7010E9467
:101CE0004030962F8C8140917E0460917D04199F35
:101CF000800D11240E940C0C1F5FCFCF8150D8CFD4
:101D00009F92AF92BF92CF92DF92EF92FF920F938A
:101D10001F93CF93DF93EC018A81BB24BA9480FD9B
:101D200002C0BB24B3948C8181110AC081E0B81237
:101D300027C080914C0181508093FE0281E08C830A
:101D4000A12C80914C01A816F0F00E948F0C80917C
:101D5000FE0291E0B9125DC0811156C080914C0124
:101D600081508093FE021C82DF91CF911F910F91D1
:101D7000FF90EF90DF90CF90BF90AF909F9008952D
:101D80001092FE02DBCF00914A01CA2CD12C0C0D1F
:101D90001D2D111DC801880F991F080F191F00580C
:101DA0001B4FF80111821082128234E0E32EF12CD5
:101DB000912C8091FE02890D813104F18F70082EE3
:101DC000000C990BC816D90691F480917E048E9D63
:101DD000A0018F9D500D1124559547955595479518
:101DE000980160917D0480917C040E940C0C9B0CF6
:101DF000F1E0EF1AF108E9F6A394A3CF87FFDFCF54
:101E000090914C01890FDBCF81508093FE02BC8200
:101E1000ABCF90E0019660914C0170E00E944030A1
:101E20008093FE028C83A0CFEF92FF920F931F93BB
:101E3000CF93DF93EC018C81811109C081E08C8309
:101E40001092FD0292E090934701809346018091A9
:101E50004A0190914B0123E0829FF0011124E05848
:101E6000FB4F891768F110E003E060914C011617F1
:101E700068F10E948F0C809146012091FD02280F8D
:101E80002093FD0290914701980F909347011916F6
:101E900054F4022E000C330B40914C014150550B71
:101EA0002417350734F0819580934601813009F479
:101EB0001C82DF91CF911F910F91FF90EF900895B9
:101EC0001182108212828F5F3396CBCFE12EF12CDC
:101ED00070E0C7010E94403020914A01820F482FD4
:101EE00050E02091FD02022E000C330BE216F306A7
:101EF000BCF020914701022E000C330B2E153F053C
:101F00007CF0809F9001112420583B4F40917E042B
:101F100060917D0480917C040E940C0C1F5FA5CF12
:101F2000FA01EE0FFF1FE40FF51FE058FB4F11827F
:101F300010821282F3CF8F929F92AF92BF92CF9274
:101F4000DF92EF92FF920F931F93CF93DF93EC01F9
:101F50004C81042F10E09801D8010E9484309B012D
:101F6000AC010E949A304B015C01E0E2F0E0E01B22
:101F7000F10BA5E5B0E0AC019B010E949A306B012A
:101F80007C019F01DF010E947C309B01AC010E941B
:101F9000A5309B01AC01280D391D4A1D5B1DC701F1
:101FA000B6010E945430F22E822F90E039E23F15A4
:101FB00060F143E0249F9001112435952795122F5D
:101FC000109500E085E5E82EEF1880914C01081788
:101FD00058F10E948F0C9C8181E0992319F0903276
:101FE00019F48FEF8093450180914501890F8C830F
:101FF000DF91CF911F910F91FF90EF90DF90CF90E5
:10200000BF90AF909F908F90089525E530E0B90183
:10201000681B790B9B01220F331F260F371F37FFD9
:10202000CCCF2F5F3F4FC9CF8E2D01FD8F2D20913B
:102030004A01622F600F7727771F9B01220F331F02
:10204000260F371F20583B4F412F60917D040E947F
:102050000C0C0F5FBACF0F931F93CF93DF93EC015C
:1020600010E000E090914C019017110609F06CF41B
:102070000E948F0C8C8190E00196817099278C834F
:10208000DF91CF911F910F91089520914A01A801EE
:10209000420F511D9A01220F331F240F351F205864
:1020A0003B4F4C8160917D0480917C049695901704
:1020B000110651F04CF0442349F040917E040E94F7
:1020C0000C0C0F5F1F4FCECF4423B9F340E0F7CF86
:1020D0004F925F926F927F928F929F92AF92BF9238
:1020E000CF92DF92EF92FF920F931F93CF93DF93E4
:1020F000FC016280448081E08483E1EAF2E0749034
:10210000E0E2F3E0E491812C75E0972EF2E0CF2E2F
:10211000DD24D394AA24AA94B12C55245A94E71907
:102120000E2F10E080914C01881690F0DF91CF9136
:102130001F910F91FF90EF90DF90CF90BF90AF90E5
:102140009F908F907F906F905F904F900C948F0C2A
:10215000E82CF12C82E0861568F09E9CF0019F9C93
:10216000F00D1124EE5FFC4F80917C048083809100
:102170007D048183411023C09E9CF0019F9CF00D43
:102180001124EE5FFC4F1382128220914A01C70195
:10219000820F911D9C01220F331F280F391F2058D9
:1021A0003B4F9E9CF0019F9CF00D1124EE5FFC4F75
:1021B0004281618180810E940C0C8394B3CF9E9CEC
:1021C000E0019F9CD00D1124CE5FDC4F8B818823D2
:1021D000E9F081508B83859DC00111246C8170E0F2
:1021E0000E942C30FB01FF27EF55FD4F8491E82F13
:1021F000E719E59DC0011124B8010E942C3080919F
:102200007E04689FB00111247A83BFCF0E94F93009
:1022100020917E04269521582C9DA0012D9D500DC6
:102220001124452F5527841795070CF0AECF82E077
:10223000861588F40E94F930B5010E9440308883E9
:102240000E94F93020917D042695622F70E00E9453
:102250004030280F29839E9CF0019F9CF00D112493
:10226000EE5FFC4F128280917E04893C58F088EC2E
:102270009E9CF0019F9CF00D1124EE5FFC4F848327
:10228000838383CF8431A0F784E1F2CF80915D0313
:10229000089510925D03089525E0EBE7F4E0DC017A
:1022A00001900D922A95E1F720915B0330915C0338
:1022B00040915D03FC012583368347830895EBE558
:1022C000F3E011828281846082830895EBE7F4E079
:1022D00080818E7F80830E945F11EBE5F3E0828135
:1022E000816082832FEF80E792E021508040904010
:1022F000E1F700C000000C948F0C0E945F118091E8
:10230000590381110AC081E08093590380917B04B5
:102310008170809358030C9466110895EBE7F4E004
:1023200080818E7F808360817181828193810E9410
:102330002D0C0E945F11EBE5F3E0828181608283C6
:102340002FEF80E792E0215080409040E1F700C0FD
:1023500000000C948F0C60917B04669570E04BE05C
:1023600050E08DE491E00E941231892B19F481E054
:1023700080935C030E9452299093530380935203ED
:1023800080915D03846080935D03089590917B0448
:1023900090FF3AC0917081112DC0926090937B04A0
:1023A00080915D03816080935D03662351F06091AD
:1023B0007B0470917C0480917D0490917E040E9446
:1023C0002D0C60917B04669570E04BE050E08DE44D
:1023D00091E00E941231892BA1F00E945F1181E0EF
:1023E0008093550340917E0460917D0480917C042C
:1023F0000C94400E8B3210F09465D0CF880F982B40
:10240000CDCF0E94AB11EBCF0895682F90917B0444
:10241000969581E0890F8B3208F081E00C94C6110B
:1024200081E00C940512682F90917B0496958FEFB4
:10243000890F09F48AE20C94C61181E00C941312FE
:1024400061E00C94C611EBE7F4E080818160808349
:1024500086950C94201280917B0480FD0C948E1143
:102460000C94231260E00C94C61180915A038111E0
:1024700033C00E943D27811104C00E94E6270E94BC
:102480003F0C0E94290C60937B0470937C04809322
:102490007D0490937E0480915D03836080935D034F
:1024A0006E7F61F40E943F0C0E94290C60937B04B4
:1024B00070937C0480937D0490937E040E941A0C98
:1024C0000E945F1180917B0480FF03C086950E946B
:1024D000321281E080935A030895EBE7F4E08081A3
:1024E0008160808386950C943212109259038091FA
:1024F000580381110E946D120C94AB111F93CF935E
:10250000DF93EC01162F8F8180FF0CC0888180FF44
:1025100024C080917B04816080937B0488818695B0
:102520000E94C6118F8181FF06C0212F4B816A81D5
:1025300089810E94470D8F8182FF05C08E8188238B
:1025400079F00E94AB118F8183FF03C081E08093FB
:102550005503DF91CF911F9108950E946611E2CF3C
:102560000E945F11F0CFEF92FF920F931F93CF93D2
:10257000DF9380915C03882309F462C080915B0340
:10258000E0917B04E695E81BE0935403823009F068
:102590005EC0F0E0E356FD4FE491CE2FD0E004EEB4
:1025A0001CE080915503882361F0109255030E942E
:1025B0005229909353038093520310925703109221
:1025C00056030E945229E0915203F09153039C015B
:1025D0002E1B3F0B2F3F3F4798F5209101032223ED
:1025E000B1F0109201032091FF0230910003821B91
:1025F000930B8F3F9F4758F4205D3A483093000378
:102600002093FF0280915D03886080935D03E090DA
:102610005603F0905703EC0FFD1FF0935303E09324
:10262000520382E593E0F801099580915603909159
:102630005703892B29F4EF2819F081E080930103D7
:10264000DF91CF911F910F91FF90EF900895863009
:1026500049F4F0E0E656FD4FE491CE2FD0E008EFCC
:102660001CE09FCF893051F4E695F0E0E956FD4F2C
:10267000E491CE2FD0E003E41EE093CF8F3051F4ED
:10268000E695F0E0EC56FD4FE491CE2FD0E000E867
:102690001EE087CF853149F4F0E0EF56FD4FE4911D
:1026A000CE2FD0E004E11FE07CCFC8E2D0E00BE900
:1026B0001FE0883109F475CF833239F4EFE8F2E096
:1026C000C591D49108E01DE06CCFC4EFD1E00BE2DE
:1026D00010E1843209F465CFC0EDD7E004E01CE0DE
:1026E000853209F05ECF8E2F63E00E942030E92F03
:1026F000F0E0E457FD4FE491CE2FD0E008E610E182
:1027000050CFFA01811101C0FB010994CF93DF93EF
:10271000C82FD62F0E94560C8C1740F00E94560CE2
:102720008D1720F4DF91CF910C9410128C2FDF9134
:10273000CF910C9420121F93CF93DF93EC01FB01F8
:102740001281111110C00E9499268272FE01E35C71
:10275000FC45E431F10508F05BC0EE58FB4C0C94ED
:1027600076300E942B12812FDF91CF911F91089517
:102770004DE152E160E172E10E948113F4CF40E14A
:1027800052E16DE172E1F8CF41E05EE064EF7DE09F
:10279000F3CF44EF5DE061E07EE0EECF4FE15EE03D
:1027A00060E17EE0E9CF40E15EE06FE17EE0E4CF12
:1027B0004DE35EE06EE27EE0DFCF4EE25EE06DE391
:1027C0007EE0DACF49E85CE062E77CE0D5CF42E723
:1027D0005CE069E87CE0D0CF81E00E942012C3CFAA
:1027E00065E082E00E948613BECF68E086E0FACF03
:1027F0006EE089E0F7CF64E18FE0F4CF67E185E137
:10280000F1CF88E1EACF62E289E1ECCF83E2E5CF64
:1028100011E0A9CF539A4BB1477F5BB15860EFB736
:10282000F8949B01220F331F260F371F280F391FE3
:102830002817390741F4EFBF8FE594E00197F1F7CE
:1028400000C000000895DC016D91CD0178E05BB916
:10285000000000C067FF4BB9660F000000C000C059
:1028600000C04BB900C07A9591F7E2CF0C94EF0607
:1028700085988D9A84988C9A8FB185FB882780F9EA
:102880007C990EC090E0892B809363039091440162
:1028900081E0982790935F03891B80935E030895DE
:1028A00092E0F1CFCF93E0916303EE0FEE0FE09350
:1028B00063034FB145FB882780F94FB144FB2227C2
:1028C00020F944FF02C022E030E0822BE82BE093A5
:1028D0006303C0915F03EF70F0E0E358FD4F808128
:1028E00090916203890F8093620320E0843074F03A
:1028F000EC2F0C2E000CFF0BE05AFC4F80818F5FF9
:10290000808360E08C2F0E94361421E08091620366
:102910008D3F74F4EC2F0C2E000CFF0BE05AFC4F93
:1029200080818150808361E08C2F0E94361421E0E9
:1029300080916203082E000C990B64E070E00E9405
:10294000403080936203822FCF910895E0915F031E
:10295000F0E0E05AFC4F2081FC0120830895FF92B3
:102960000F931F93CF93DF93D0915E030D2F10E051
:10297000005A1C4FFC01C081F8018081C81BFC2E4D
:1029800080E01F147CF09C2FC7FD90E0C91BC11193
:1029900014C08823E9F0DF91CF911F910F91FF9030
:1029A0000C946D1DFA94F80180818F5F808360E044
:1029B0008D2F0E94361481E0E4CFCF5FF801808133
:1029C0008150808361E08D2F0E94361481E0DFCF3B
:1029D000DF91CF911F910F91FF900895CF92DF92D9
:1029E000EF92FF920F931F93CF93DF936C017B01C4
:1029F00064E670E088E70E946C1AEC0197FD12C053
:102A000010E000E0F601E00FF11F849164E670E051
:102A10000E94C81AEC01892B29F40F5F1F4F0E1575
:102A20001F0581F70E944B1BCE01DF91CF911F91B3
:102A30000F91FF90EF90DF90CF900895E0EBF4E0DE
:102A400080E092E0DF019C011D9221503040E1F7CF
:102A5000F093B506E093B4068FEF9FEF9093900349
:102A600080938F0308950E94820680938B0380FDDC
:102A70000FC080E880938A030E94661A6DE070E0C0
:102A80008DEB94E00E94EE14892B21F080E00895F4
:102A900080E2F0CF80918B0363E070E081FD26C07F
:102AA0008AEB94E00E94EE14892B81F76DE070E0D0
:102AB0008AEA94E00E94EE14892B41F70E94D22802
:102AC000605A75418F4F9F4F6093B0067093B10667
:102AD0008093B2069093B3060E941E1581E0809306
:102AE0008E0380938D0310928C03089587EB94E0FE
:102AF000D9CF20918A0336E0839FC0011124629FC1
:102B0000800D911D1124811522E0920714F090E0B0
:102B100080E080559B4F9093B5068093B40608954E
:102B20002091B4063091B5062A5A344040918A0368
:102B3000642F70E0C9010E942C30481B463010F40D
:102B4000240F311D211582E0380710F030E020E01D
:102B500020553B4F3093B5062093B40608951F933C
:102B6000CF93DF93162F8A3031F481E0DF91CF913C
:102B70001F910C9429168D3011F480E0F7CFC0918D
:102B8000B406D091B50696E0FE01A4E6B3E001904C
:102B90000D929A95E1F7803EC8F086E0FE01119211
:102BA0008A95E9F711111EC0C091B406D091B506FF
:102BB00046E050E0BE0184E693E00E941F31892B7D
:102BC000F9F4DF91CF911F910C949015F6E08F9F4F
:102BD000B001112466537B4F46E050E0CE010E94C5
:102BE0000931E0CFE091B406F091B5069F012A5F6C
:102BF0003F4F2E173F07C1F2808180958193F9CF17
:102C0000C05BD440CE0125E0969587952A95E1F7E3
:102C100021E030E0A90102C0440F551F8A95E2F778
:102C2000CA0140918F0350919003842B952B2596D8
:102C300045E0D695C7954A95E1F702C0220F331FAC
:102C4000CA95E2F7822B932B9093900380938F0386
:102C5000B8CFCF93382FE091B406F091B506E05B82
:102C6000F44020918A03622F70E0CF010E942C3043
:102C7000281B822F332369F066E00E942030C82F82
:102C8000C15010F4CF91089560E080E20E94AF152A
:102C9000F7CF9F01280F311D2115324018F080E039
:102CA000F0E0E0E08E0F9F2F911D80559B4F909399
:102CB000B5068093B406E6CFFF920F931F93CF9390
:102CC000DF93EC01F62EFC0101900020E9F78F0163
:102CD00001501109C017D10730F0DF91CF911F913A
:102CE0000F91FF9008956F2D89910E94AF15F2CF3B
:102CF0000E945C1681E00C94291680918E0381114C
:102D000003C080918D0308950E94D228605A7541B6
:102D10008F4F9F4F6093B0067093B1068093B206B9
:102D20009093B30680918D038111EBCF62E070E048
:102D300088EA94E00E94EE14892B19F781E08093D1
:102D40008D03DFCF2F923F925F926F927F928F928F
:102D50009F92AF92BF92CF92DF92EF92FF920F932A
:102D60001F93CF93DF9380918E03882369F0209186
:102D70008F03309190032115310531F080918C0340
:102D800061E070E0882399F0DF91CF911F910F915E
:102D9000FF90EF90DF90CF90BF90AF909F908F907B
:102DA0007F906F905F903F902F9008958F5F082FD6
:102DB00010E01B01082E02C0220C331C0A94E2F71B
:102DC000A90142215321452B89F390918B0390FD5A
:102DD00044C08295880F807680935A019801369579
:102DE00027953695279520935D01815E80935B0141
:102DF00010925E0124E630E047E050E068E571E0C3
:102E000088E70E94F71A892B09F0BECFA80125E0B8
:102E1000440F551F2A95E1F780918B0380FD2BC04D
:102E200040555B4F04E610E020E230E060E488E7C4
:102E30000E941E1B892B09F0A7CF0E947D16E1017D
:102E4000C095D09580918F0390919003C823D9238A
:102E5000D0939003C0938F0397CF880F880F880F6C
:102E600080935A0110925D01895F80935B0183E03A
:102E700080935E01BFCFEAE6F3E080E2DF011D92BE
:102E80008A95E9F7A1E9B2E00DE812E085E9C82EDC
:102E900082E0D82E97E0592E772473948D91E80123
:102EA00029918E01240F352F311D20553B4FE82FDE
:102EB000F0E0E659FC4F90E080E0652C681A872C22
:102EC000082E01C0880C0A94EAF77901A12CE701C9
:102ED000B9907E01B820662D6A196770962E062E6D
:102EE000000C770BDB2D01C0DD0F9A94EAF771958A
:102EF000619571096770772701C0B6946A95EAF702
:102F0000BD2A6081962E9B289082A39468E0A61229
:102F1000DECF019631968830910579F6CA16DB0628
:102F200009F0BCCF04E610E020E230E04AE653E0CE
:102F30007DCF80918D0390918E03911103C091E01C
:102F400089270895882369F062E070E086EA94E0BA
:102F50000E94EE14892B19F080918D030895109230
:102F60008D0380918D03EBCF0F931F9380918E0380
:102F7000882319F160E080E00E9479150E948C0698
:102F80000E94A21680918D038823B9F00E94D22856
:102F90000091B0061091B1062091B2063091B306AF
:102FA000601B710B820B930B6F3F7F4F8F4F9F47BF
:102FB00020F41F910F910C9499171F910F91089570
:102FC0000F931F93CF93DF93C42FD22FFC018281E5
:102FD0008823C9F0409393030E94C62890939203DC
:102FE0008093910380E28C0F883008F050C0C77046
:102FF00081E001C0880FCA95EAF7DF91CF911F9158
:103000000F910C94241F10919303141335C08091D9
:103010009103909192030E94DE288436910560F519
:10302000C0E2CD0F1D17B9F080E2810F883040F467
:10303000177081E001C0880F1A95EAF70E942B1FD4
:10304000C83048F481E09D2F977001C0880F9A9591
:10305000EAF70E94241F802F0E941C1FC830B8F47A
:10306000D77081E001C0880FDA95EAF7DF91CF9140
:103070001F910F910C942B1F80E28C0F883038F435
:10308000C77081E001C0880FCA95EAF7EFCFDF91E2
:10309000CF911F910F9108950F939C01CB01243F75
:1030A0004CE5340759F1A8F4293DFCE53F0701F14F
:1030B0002A3D4CE53407D1F1283D3C4591F406E228
:1030C00021EE41EE68ED7CE50E94E01780E00F9173
:1030D0000895263FFCE53F07E9F0B0F0273F3C4567
:1030E000F9F0FC018281882339F110929303EFCF2C
:1030F00007E225EE45EE69ED7CE5E6CF06E221EE3E
:1031000040EE64EF7CE5E0CF07E225EE44EE65EFAC
:103110007CE5DACF06E221EE42EE66EF7CE5D4CF25
:1031200007E225EE46EE67EF7CE5CECF08E221E030
:1031300045EE6AED7CE5C8CF81E0C9CFCF93DF9340
:10314000EC01FB018281882309F419C1C230FCE53E
:10315000DF07C0F1C6319CE5D90730F09E012B5F37
:103160003C452930310570F50E9455279093BF06E4
:103170008093BE06C031ECE5DE0709F4CFC008F04D
:103180005BC0C8308CE5D80709F4B6C088F5C430F8
:10319000ECE5DE0709F4A8C0C0F4C2308CE5D8071E
:1031A00009F49CC08091BE068260C330DC4509F4FE
:1031B00098C08091BE069091BF060E9463270E942E
:1031C000812180E0DF91CF9108958091BE068061DA
:1031D000C630ECE5DE0709F484C08091BE06886045
:1031E000C730DC4508F47DC08091BE06806279C09E
:1031F000CC308CE5D80709F489C070F48091BE0604
:103200008C60CA30ECE5DE0709F46BC008F478C0C6
:103210008091BE068E7F65C0CE308CE5D80709F45C
:1032200079C08091BE068B7FCF30DC4508F459C051
:103230008091BE068F7E55C0CC3FECE5DE0709F4D9
:1032400057C030F5C3318CE5D80709F46FC078F466
:10325000C131ECE5DE0709F465C0C231DC4509F097
:10326000A8CF0E9481218091BE068F773AC0C531D8
:103270008CE5D80709F462C008F476C08091BF06D7
:103280008160CB3FDC4509F094CF8093BF0691CF9E
:10329000C115FDE5DF0709F44DC088F48091BF0634
:1032A0008D7FCE3F9CE5D90781F38091BF068E7F4D
:1032B000CF3FDC4550F38091BF068360E6CFC2303C
:1032C000FDE5DF0709F459C008F444C080E0C330CD
:1032D000DD4509F06ECF0E94E8276BCF8091BE06D6
:1032E00081608093BE0665CF8091BE068460F9CF71
:1032F0008091BF068260C9CF8091BE068064F1CF05
:103300000E9481218091BE068068EBCF8091BE062D
:103310008D7FE7CF8091BE06877FE3CF8091BE0689
:103320008F7DDFCF8091BE068F7BDBCF8091BE0685
:10333000837FD7CF8091BF068C7FA7CF8091BE06B9
:1033400082FB992790F921E0922790FB82F990FB6C
:1033500083F9C7CF8091BF06982F909591708E7F8B
:10336000892B90FB81F991CF0E9481219091BE061B
:10337000892F97FB87F98058B4CF81E0ACCF81E0EB
:1033800021CFCF93DF93EB0186319C4511F50E944D
:1033900099269A81992399F08A7A91E009F490E02C
:1033A00090939403811109C089E20E9474260E94BF
:1033B000D82680E0DF91CF91089585E3F6CF809104
:1033C0009403811104C089E20E947B26F0CF85E33B
:1033D000FBCF81E0EFCF62E070E08FE591E00C94ED
:1033E000B21B62E070E08FE591E00C94BB1B0E9481
:1033F0004611882361F081EA93E00E944C1181E03C
:1034000090E00E94941C892B11F40C9449110895AA
:103410008091A003883039F460E081EA93E00E9453
:103420007E121092A0030895CF93DF93D62FC72F5B
:103430000E94F71990E080E00E94941C009709F523
:10344000ED2FFC2FDC01A656BC4F2C912193019649
:1034500085309105B9F78FE993E00E94AF140E947F
:1034600037296E5F7F4F8F4F9F4F60939603709306
:103470009703809398039093990381E0DF91CF9114
:10348000089580E0FBCFCF93DF93D62FC72F0E9404
:10349000081A609196037091970380919803909118
:1034A00099030E941A29ED2FFC2F90E080E02191D2
:1034B000DC01A656BC4F2C93019685309105B9F7D7
:1034C0008FE993E0DF91CF910C94A6141092B9008C
:1034D0008CE08093B8000895EF92FF920F931F93B2
:1034E000CF93DF93182FEB011092BC0084EA8093F6
:1034F000BC000E94C6287C018091BC0087FF27C0C9
:103500008091B900887F883029F08091B900887F48
:103510008031D9F51093BB0084E88093BC000E94F1
:10352000C6288C018091BC0087FF24C02091B9007F
:10353000287F90E080E02831B1F081E090E02034F5
:1035400011F490E080E09195819591090CC0CF3FF6
:10355000DC0791F20E94C6288E199F098C179D07DF
:1035600058F28EEF9FEFDF91CF911F910F91FF9057
:10357000EF900895CF3FDC07A9F20E94C628801B78
:10358000910B8C179D0770F2ECCF8FEF9FEFEBCF75
:103590000F931F93CF93DF93EB018093BB0084E8DD
:1035A0008093BC000E94C6288C018091BC0087FFDC
:1035B00011C02091B900287F81E090E0283211F4F9
:1035C00090E080E0919581959109DF91CF911F91D5
:1035D0000F910895CF3FDC0741F30E94C628801B5E
:1035E000910B8C179D0708F38EEF9FEFEECFCF92D4
:1035F000DF92EF92FF920F931F93CF93DF936B01B4
:103600008A017901B9010E946C1AE6010C0D1D1D99
:10361000C017D10761F424E92093BC00DF91CF915A
:103620001F910F91FF90EF90DF90CF90089597FD3D
:10363000F2CFB70189910E94C81AEACFCF92DF92E8
:10364000EF92FF920F931F93CF93DF93C62F6A01E0
:103650007901B8010E946C1A97FD0CC0B8018C2F3B
:103660000E94C81AE601EC0CFD1CCE15DF0511F016
:1036700097FF0CC024E92093BC00DF91CF911F91EC
:103680000F91FF90EF90DF90CF900895B80189914E
:103690000E94C81AEACF84E98093BC0008958EE1A5
:1036A0004A9B02C08150E1F74A9BFECF08955A9889
:1036B00080E28A95F1F75A9A0895FC013BE03A9529
:1036C000F1F720E090E080E031E040E14A95F1F749
:1036D000880F4A9B02C08160232742E04A95F1F798
:1036E000000040E14A95F1F79F5F6913EECF90E14A
:1036F0009A95F1F799B132E03A95F1F7000040E17F
:103700004A95F1F792FB992790F992272081920F21
:1037100090830895EF92FF920F931F93CF93DF93BF
:103720000F92CDB7DEB719828C017C01E60EF11C39
:103730000E151F0561F481E09981911180E00F90D1
:10374000DF91CF911F910F91FF90EF9008950E940C
:103750004F1B68E0CE0101960E945D1BF80181932A
:103760008F01E6CF9093AB038093AA036093A903E4
:10377000529A5A9A08959093AB038093AA03609348
:10378000A90352985A9AEA9AE9E6F0E080818F7C80
:10379000808308956150770B91E001C0990F6A957D
:1037A000EAF720E031E0911108C0222391F05A9A03
:1037B00080E28A95F1F75A980895492F482339F005
:1037C0005A9A232740E24A95F1F79695ECCF5A98FA
:1037D000F9CF5A98EDCFFF920F931F93CF93DF93BA
:1037E000EC018C01060F111DC017D10731F4DF91D8
:1037F000CF911F910F91FF900895F9900E94571B50
:1038000068E08F2D0E94CA1BEFCF1F920F920FB658
:103810000F9211240F931F932F933F934F935F9316
:103820006F937F938F939F93AF93BF93EF93FF9388
:10383000CF93DF930F92CDB7DEB719820E944F1B53
:1038400067E0CE0101960E945D1B082F0695069544
:103850000695982F92959570202F2570920F292FFD
:103860002370969596958770920F891344C089812D
:10387000811141C08091A9038017E8F120E12A95C8
:10388000F1F75A9A529A82E08A95F1F700C0A8E0BF
:103890000A9FC00111240091AA031091AB03080FE5
:1038A000191F5A98F8016581662321F08681978156
:1038B0000E94EB1B0E94571BF0E1FA95F1F75A9812
:1038C00052985A9A20E12A95F1F7D80112966C91F4
:1038D0001297662331F113968D919C910E948A1B59
:1038E000D801ED91FC91882311F088E001C082E0BD
:1038F00080830E944F1B0F90DF91CF91FF91EF913A
:10390000BF91AF919F918F917F916F915F914F91F7
:103910003F912F911F910F910F900FBE0F901F900D
:103920001895ED91FC91E1CF0F931F93CF93DF9307
:103930002091A903281719060CF471C08C0193E09B
:10394000000F111F9A95E1F7C091AA03D091AB0324
:10395000C00FD11FF894529A5A9825E02A95F1F792
:103960000000982F969595708570980F892F837019
:1039700096959695980F092B0E94571B00C067E0FB
:10398000802F0E94CA1B80E18A95F1F752985A9ABB
:103990004A9B17C087E090E04A9915C06D81662365
:1039A00021F18E819F810E948A1B81111EC0529A33
:1039B0005A9AE881F98182E08083789482E090E0ED
:1039C0000DC000C0E5CF019771F4529A5A9AE88170
:1039D000F98181E08083789481E090E0DF91CF915C
:1039E0001F910F91089500C0D7CF0E944F1B20E276
:1039F0002A95F1F75A98529A80E18A95F1F76A81EF
:103A0000662321F08B819C810E94EB1B0E94571B37
:103A1000E881F9811082789490E080E0DFCF84E043
:103A200090E0DCCF9093B1038093B0030895E091D0
:103A3000B003F091B103309721F00190F081E02DB7
:103A4000099480E00895E091B003F091B1033097BC
:103A500021F00280F381E02D099408952091AE03B6
:103A60003091AF032817390771F09093AF0380931B
:103A7000AE03E091B003F091B103309721F00680DE
:103A8000F781E02D099408952091AC033091AD03A6
:103A90002817390771F09093AD038093AC03E09140
:103AA000B003F091B103309721F00084F185E02D4F
:103AB000099408950E94D2286093C5037093C603A9
:103AC0008093C7039093C8036093C1037093C203AC
:103AD0008093C3039093C40308950E94D2286093F7
:103AE000C5037093C6038093C7039093C803609384
:103AF000BD037093BE038093BF039093C0030895EA
:103B000085B7806885BF85B7806885BF08950895AB
:103B100008950C94871D08950C948B1D0E94801DA0
:103B20008BE397E20E946C290E94881D0C94891DEA
:103B30000C94320B089508950E94BD280E9411290B
:103B40000E94C80980E00E9433150E9471290E94DA
:103B500035120E9438140C948C1D9F92AF92BF9224
:103B6000CF92DF92EF92FF920F931F93CF93DF9349
:103B7000CDB7DEB72A970FB6F894DEBF0FBECDBF24
:103B80000E949A1D0E949B1D0E94790AC82E8111D5
:103B90000E945A1D83EBA82E83E0B82E10E000E0AF
:103BA000902E802F0E94A109E82EF501F1905F016F
:103BB000F81609F45CC080913F0481FD0E94A709BA
:103BC0008F2D8E25D12CFF24F394982F9F2109F45B
:103BD00049C00E94981D882399F0DE829F82EF20C1
:103BE00081E009F480E088870E94C6288160782FF0
:103BF0009A8789874E815F8168858A850E94601EC9
:103C0000F801ED54FC4F8081F826F0820E94B31237
:103C10000E945214182F81110E946D1D0E94B4172A
:103C2000C11001C011110E947D160E94171D9091B4
:103C3000B203891799F10E94171D8093B2032A9647
:103C40000FB6F894DEBF0FBECDBFDF91CF911F91AD
:103C50000F91FF90EF90DF90CF90BF90AF909F902B
:103C60000C94BA07D394FF0CF6E0DF12AECF0F5FCF
:103C70001F4F0A30110509F093CF8FEF89838A8394
:103C80001B820E94C6288160782F9D838C83498186
:103C90005A816B818D810E94601EB8CF2A960FB623
:103CA000F894DEBF0FBECDBFDF91CF911F910F9172
:103CB000FF90EF90DF90CF90BF90AF909F900895CE
:103CC000DF92EF92FF920F931F93CF93DF93CDB7C5
:103CD000DEB72B970FB6F894DEBF0FBECDBF7A8745
:103CE0008B87F42E052F162FE72ED82E61110E94F8
:103CF000B9261E821D827E2DEC82DD824F2D502F33
:103D0000612F8D2D9E812B960FB6F894DEBF0FBECE
:103D1000CDBFDF91CF911F910F91FF90EF90DF907A
:103D20000C94E523FC01808191810C944626CF936D
:103D3000C82F882309F43FC08CEF8C0F813AA0F480
:103D40006C2F80916F01909170010E94FF27882352
:103D500029F08C2F0E947B260E94D8268C2F0E944F
:103D60007426CF910C94D82680E28C0F883048F4CA
:103D7000C77081E001C0880FCA95EAF70E949C26AF
:103D8000F0CFEBE5EC0FE33040F4F0E0ED53FD4F06
:103D9000808190E0CF910C942E1DC85AC73158F401
:103DA000EC2FF0E0EE0FFF1FEB56FD4F808191816D
:103DB000CF910C94441DCF910895882329F19CEF55
:103DC000980F913A20F40E947B260C94D82690E21A
:103DD000980F983050F4877091E001C0990F8A9540
:103DE000EAF7892F0E94A226F0CF9BE5980F933027
:103DF00020F490E080E00C942E1D885A873120F446
:103E000090E080E00C94441D08951F93CF93DF93BE
:103E1000182FEB010E94971E209731F4812FDF911C
:103E2000CF911F910C94DD1E8FE99FE00197F1F770
:103E300000C000002197F0CF70E060E0893311F4FA
:103E400060E570E00C94051F882321F00E949C26F9
:103E50000C94D8260895882321F00E94A2260C9461
:103E6000D8260895BF92CF92DF92EF92FF920F93E0
:103E70001F93CF93DF936C01D62FC72FFC011281C4
:103E8000058102950F700E949226E82E8823A1F0EA
:103E9000E12E112389F08C2F807F803429F080E27D
:103EA0008D0FE12C883040F082E00E9423270E9491
:103EB000922691E0E82EE926BC2EB2949FE0B9222A
:103EC000FBE0FB1598F1EB2DF0E0EA57FB4C0C946E
:103ED00076300C2F0F70C07F11F00295007F1123F8
:103EE000A9F0002359F080E28D0F883010F0D11135
:103EF00009C0802F0E949C260E94D8268D2F0E94E8
:103F0000971E14C0802F0E94AC26F6CF8D2F0E94E2
:103F1000DD1E002359F080E28D0F883010F0D111A2
:103F20002CC0802F0E94A2260E94D8262B2D28501C
:103F3000330B2430310520F40E94171D0E94BA076C
:103F4000EE2009F483C10E948E2680FD7FC1F60118
:103F500012820E9488260E941125C6010E944721D4
:103F60000E948826DF91CF911F910F91FF90EF90D3
:103F7000DF90CF90BF900C943225802F0E94B22604
:103F8000D3CF2C2F2F70F22EC07FC03219F0F294B5
:103F900080EFF822DD2369F0D13049F1112391F14E
:103FA000002351F1F601858180FFA8CF8F708583B2
:103FB00023C0112381F0011106C00E94BF268F2962
:103FC0000E94241FB3CF0130C1F70E94BF268F2962
:103FD0000E94C526ABCF011106C00E94CE268F2DB0
:103FE0000E942B1FA3CF013009F4A0CFF6CF1123DD
:103FF00029F0063008F09ACF8F2DE2CF053008F077
:1040000095CFEDCF002359F3D93349F4FFEF27EED5
:1040100033E0F15020403040E1F700C000008D2F28
:104020000E94DD1E83CF8C2F86958695837069F064
:10403000813009F07BCF8D2F9C2F9370111102C01E
:1040400090E080E00E94441D71CF8D2F9C2F9370D3
:10405000111102C090E080E00E942E1D67CF8C2FCE
:10406000837009F041C0111161CF4D2F42954695E3
:104070004770440F440F0D2F0F7010E030E020E028
:10408000042E04C0000F111F221F331F0A94D2F701
:1040900060E070E0CB01D4FF0FC06FE070E080E023
:1040A00090E004C0660F771F881F991F4A95D2F7CA
:1040B0006095709580959095C695C695C370602B58
:1040C000712B822B932BC23049F058F4C13019F078
:1040D0000E94A3242BCF0E94912428CF0E94B524B4
:1040E00025CF0E948F2422CF8695112311F08C2F8B
:1040F0008170882309F41ACF4D2F42954695477059
:10410000440F440F0D2F0F7010E030E020E0042E1C
:1041100004C0000F111F221F331F0A94D2F760E062
:1041200070E0CB01D4FF0FC06FE070E080E090E062
:1041300004C0660F771F881F991F4A95D2F76095B4
:10414000709580959095C695C695C370602B712B20
:10415000822B932BC23049F058F4C13019F00E94E1
:104160008825E4CE0E947625E1CE0E949A25DECEF7
:104170000E94CB24DBCECF70112329F08C2F0E941C
:1041800011258D2F1DCF8D2F0E942B1F8C2F0E944C
:104190003225CCCED23F89F160F4D03FC9F0D13F77
:1041A00029F1112309F442C00111A8CE8C2F8F717F
:1041B00021C0D33F39F1D43FA1F7112369F1CF7169
:1041C0008C2F0E94112563E08C2F0E940E27AECE0B
:1041D000112341F0053008F0A9CE8C2F8F710E9479
:1041E0005525A4CE063008F0A1CEF7CF8C2F8F71C5
:1041F000112369F20E94112599CE8C2F8F71112302
:10420000C9F3C5CF112329F08C2F8F710E94FC2494
:104210008DCE0E94D7248ACE81E00E9423270230CF
:1042200008F484CE82E00E94232780CE002359F038
:10423000D93309F0F4CE8FEF97EEE3E08150904050
:10424000E040E1F7EACE8C2F8F71A1CFDF91CF91C3
:104250001F910F91FF90EF90DF90CF90BF90089546
:104260000F931F93CF93DF93EC01688179818A814B
:104270000E9450268C010E94AC250E948E24B80119
:10428000CE01DF91CF911F910F910C94321FCF93EC
:10429000DF93EC018B819C81892B29F088819981A6
:1042A00089238F3F59F4DF91CF910895CE010E9469
:1042B0003021CE01DF91CF910C943907CE010E94BD
:1042C00071078111F3CF0E949226882361F38A81BE
:1042D000882349F382E0DF91CF910C94232790E06B
:1042E00080E00E942E1D90E080E00E94441D0E940C
:1042F000B9260E94BC260C94D8260E9482260C94D3
:104300006F210E94A9260C947D21E92FE295EF7080
:10431000E250EE3070F4F0E0EE56FB4C0C94763048
:10432000803F19F020F4883E20F481E00895843F16
:10433000E1F380E00895883EC0F3813FD1F7F5CFE7
:1043400093FB882780F908950E9446260C948521C6
:10435000CF93DF9300D000D00F92CDB7DEB70F9090
:104360000F900F900F900F90DF91CF910895CF9302
:10437000DF9300D000D000D0CDB7DEB726960FB6C1
:10438000F894DEBF0FBECDBFDF91CF9108951F938C
:10439000CF93DF93C091CA0316E08091CB038C13B7
:1043A00004C0DF91CF911F910895D0E01C9FF001D0
:1043B0001D9FF00D1124E453FC4F40815181628117
:1043C0007381848195810E94B7212196C770E5CFC2
:1043D0004091FC035091FD036091FE037091FF0337
:1043E00080910004909101040C94B7211F93CF9306
:1043F000DF9380910104807FA9F48091FE038823DC
:1044000089F08091CA03C091CB036091FC03709145
:10441000FD03A091FF03B0910004D62FD72316E02F
:10442000C81304C0DF91CF911F91089590E01097B9
:1044300011F0DF3F19F401968770F2CF189F9001B9
:10444000199F300D1124F901E453FC4F41814713AA
:10445000F2CF40814613EFCF42814111ECCF43812F
:1044600054814A1B5B0B4436510528F780910104A7
:104470008F70806180930104F901EF52FC4F8081BD
:104480008F70806180838CEF93E00E944721DF91E1
:10449000CF911F910C94C721AF92BF92CF92DF9220
:1044A000EF92FF920F931F93CF93DF93CDB7DEB7B9
:1044B00061970FB6F894DEBF0FBECDBF8C0185E0CB
:1044C000F801DE011D9601900D928A95E1F7F80141
:1044D00040815181E2808CEFC82E83E0D82E60911C
:1044E000FF03709100046115710509F44FC19091AB
:1044F000FC032091FD03892F82238F3F09F446C1DD
:10450000A380B480F090FE03F501E61BF70BFF20BB
:1045100009F40AC180910104382F307FE436F10597
:1045200008F0C0C0311179C0FE2C251323C09413AC
:1045300021C0E1101FC08F708061809301040E9430
:10454000E821C6010E94472180910104F80185837A
:104550008F2D61960FB6F894DEBF0FBECDBFDF91F1
:10456000CF911F910F91FF90EF90DF90CF90BF9070
:10457000AF900895AB2829F0842F85238F3F09F051
:1045800021C180E0F82FF170DF2E80FF3CC08091C8
:10459000CA032091CB0336E0821315C04D875E8796
:1045A0008D859E850E944626292F22952F702230C8
:1045B000F0F0243018F59F70F1F0F8019581907FAC
:1045C000D1F4D12C1EC090E0389FF001399FF00D3E
:1045D0001124E453FC4F6181651306C060816413AC
:1045E00003C062816E110FC001968770D5CF9F7096
:1045F00011F0882331F3805E883018F3C8010E94DF
:104600004721FD2CA5CFEE2009F4A2CF8091010413
:10461000816080930104F12C9BCF251314C0941367
:1046200012C0E11010C0F8018583C8010E94472123
:1046300086E0F801ACEFB3E001900D928A95E1F7C6
:104640000E94E82185CF4D875E878D859E850E94DB
:10465000A421882319F1EE2009F180910104803210
:1046600070F02091FC033091FD0338872F83198669
:10467000BB86AA868C87CE0107960E94472186E0DA
:10468000F801ACEFB3E001900D928A95E1F70E943A
:10469000F6210E94E821FF24F3945ACFC8010E941A
:1046A0004721F9CF311113C07A2DB98AA88A6E2D0E
:1046B00089890E94A8218CEF93E00E94472186E01F
:1046C000F60111928A95E9F70E94E821A4CF2513FB
:1046D0000FC094130DC0E1100BC0F8018583C80111
:1046E0000E94472186E0F60111928A95E9F730CFC2
:1046F0004D875E878D859E850E94A421882371F257
:10470000EE2061F280910104803208F4B8CF20914C
:10471000FC033091FD033A8329831B82BD82AC8266
:104720008E83CE010196A9CFE436F10510F5FE2C5B
:10473000EE2009F4B3CF25130BC0941309C086E013
:10474000F801ACEFB3E001900D928A95E1F700CF4C
:104750004D875E878D859E850E94A42181118FCF14
:1047600080910104816080930104C8010E94472167
:10477000EFCE7A2DB98AA88A6E2D89890E94A82148
:1047800086E0F60111928A95E9F75ACFEE2009F4F6
:1047900085CF4D875E878D859E850E94A421F82E4A
:1047A000882309F47BCF86E0F801ACEFB3E00190F9
:1047B0000D928A95E1F78CEF93E00E94921E0E9481
:1047C000F6213ECF81E08E25DDCE1F93CF93DF9380
:1047D000CDB7DEB72C970FB6F894DEBF0FBECDBFB6
:1047E0004F83588769877A878B879C87CE01079686
:1047F0000E944C22882369F08A859B85892B39F099
:104800004F815885842F85238F3F09F071C016E0B2
:104810005FC086E0FE013796DE01119601900D9291
:104820008A95E1F78A859B85892B89F38F81988505
:1048300089238F3F61F32091CB0330E0C9010196BA
:10484000877099274091CA034817190671F40E948E
:1048500081211092CB031092CA0386E0ECEFF3E0C3
:10486000DF011D928A95E9F7D2CF96E0929FD001A1
:10487000939FB00D1124A453BC4FFE0131960190BB
:104880000D929A95E1F78093CB030E94C721BFCF89
:10489000819FC001112484539C4F0E944C22882385
:1048A000E9F0E091CA031E9FF0011124E453FC4F8C
:1048B0004081518162817381848195810E94B721F9
:1048C0008091CA0390E00196877099278093CA036C
:1048D0008091CA039091CB038913DACF2C960FB63F
:1048E000F894DEBF0FBECDBFDF91CF911F91089529
:1048F00069857A858B859C850E94B72188CF08952C
:104900000C947F240E94802460932E0470932F04C3
:1049100080933004909331040C946F2108950C948B
:1049200082240F931F9300912E0410912F04209145
:10493000300430913104602B712B822B932B1F910B
:104940000F910C9482240F931F9300912E041091C9
:104950002F0420913004309131046023712382238D
:1049600093231F910F910C9482240F931F93009116
:104970002E0410912F0420913004309131046027CF
:104980007127822793271F910F910C9482240C94F6
:104990007F240C94C7240E94C92460932A04709336
:1049A0002B0480932C0490932D040C946F2160E0D1
:1049B00070E0CB010C94CB24611571058105910544
:1049C00029F481E0442361F080E00895DC01CB010B
:1049D00004C0B695A795979587954A95D2F78170AB
:1049E0000895482F60912A0470912B0480912C0423
:1049F00090912D040C94DC240F931F9341E050E020
:104A000060E070E08A019B0104C0000F111F221FAB
:104A1000331F8A95D2F7C901B8011F910F910C94E9
:104A2000CB240F931F9341E050E060E070E004C09E
:104A3000440F551F661F771F8A95D2F780912A046D
:104A400090912B04A0912C04B0912D048A019B011C
:104A5000082B192B2A2B3B2BC901B8011F910F9151
:104A60000C94CB240F931F9341E050E060E070E082
:104A700004C0440F551F661F771F8A95D2F7CB01DC
:104A8000BA01609570958095909500912A041091D7
:104A90002B0420912C0430912D0460237123822358
:104AA00093231F910F910C94CB240F931F9341E0FC
:104AB00050E060E070E004C0440F551F661F771F90
:104AC0008A95D2F780912A0490912B04A0912C040E
:104AD000B0912D048A019B01082719272A273B271B
:104AE000C901B8011F910F910C94CB240F931F9310
:104AF00000912A0410912B0420912C0430912D0454
:104B0000602B712B822B932B1F910F910C94CB2434
:104B10000F931F9300912A0410912B0420912C04D1
:104B200030912D0460237123822393231F910F91D1
:104B30000C94CB240F931F9300912A0410912B0403
:104B400020912C0430912D04602771278227932710
:104B50001F910F910C94CB240895E92FEE0FE90FCC
:104B6000EE0F8E0F982F977041E001C0440F9A9579
:104B7000EAF786958695869595E0899FF001112440
:104B8000EE5FFB4F30E020E070E05191DF011197C4
:104B9000CB01022E02C0969587950A94E2F78170A8
:104BA00081958527842385278C932F5F3F4F253060
:104BB000310559F70895E92FEE0FE90FEE0F8E0F2B
:104BC000982F977086958695869525E0829FF001AF
:104BD0001124EE5FFB4F50E040E080E0219130E097
:104BE000092E02C0369527950A94E2F721703327E3
:104BF000042E01C0220F0A94EAF7822B4F5F5F4F09
:104C00004530510559F70895BF92CF92DF92EF9248
:104C1000FF920F931F93CF93DF938C01C0902A04D0
:104C2000D0902B04E0902C04F0902D0480912E0461
:104C300090912F04A0913004B0913104C82AD92A50
:104C4000EA2AFB2ACFE1D0E0BC2ED701C6010C2E08
:104C500004C0B695A795979587950A94D2F780FDDD
:104C60000EC0219788F7B12C8B2DDF91CF911F912A
:104C70000F91FF90EF90DF90CF90BF900895B80113
:104C80008C2F0E94D607019761F3EECFCF93DF936D
:104C9000EC010E940426BE01DF91CF910C94D6074F
:104CA0001F93CF93DF93EB019091C903992331F0C8
:104CB000CB01DF91CF911F910C944626882379F088
:104CC000CB010E940426182F682FCE010E94AD252B
:104CD000BE01812FDF91CF911F910C94D607CB019C
:104CE0000E94DB25182FF4CF682F80916F019091DF
:104CF00070010C943528682F80916F01909170019C
:104D00000C94372880916F01909170010C94392890
:104D1000809132048595859585950895809132041A
:104D20008770089590913204977081E009F480E0D3
:104D3000089580913E04089590913E04892B8093BC
:104D40003E040895809590913E04982390933E04EC
:104D5000089510923E04089590913D04892B80930C
:104D60003D040895809590913D04982390933D04CF
:104D7000089510923D04089510923C040895809186
:104D80003304089508950C94C22690913304981723
:104D900021F0809333040C94C3260895809133044A
:104DA000882329F01092330480E00C94C3260895E0
:104DB000E0916F01F091700180913E048083E09159
:104DC0006F01F0917001808190913D04892B808367
:104DD000E0916F01F0917001808190913C04892BEA
:104DE000808390913304992381F0E0916F01F091D9
:104DF00070018081892B808380916F019091700177
:104E00000E94ED2781110E94CE2680916F01909122
:104E100070010C94231D08950C940B2798E0899F32
:104E200090011124622B609332040E94112580911D
:104E300032048595859585950C940C271092320443
:104E400080E00C940C279091320480958923809304
:104E50003204282F277071F4282F082E000C330BF2
:104E60009217130639F08595859585950E94322510
:104E70000C941E27089580E0089590E080E00E9441
:104E8000E03321E08B3E9E4F09F020E0822F089511
:104E900082E090E00C94D23383E090E00C94D23323
:104EA000682F83E090E00C94E633CF9384E090E0A9
:104EB0000E94D233C82F81E290E00E94D233982F13
:104EC0008C2FCF910895CF93C92F682F84E090E065
:104ED0000E94E6336C2F81E290E0CF910C94E63390
:104EE000AB01BC018FE090E00C94F833AB01BC0146
:104EF00083E190E00C94F83360E070E0CB010C9417
:104F0000762760E070E0CB010E9470270C947C272C
:104F10006BEE7EEF90E080E00E94043460E082E07F
:104F200090E00E94E63360E083E090E00E94E63388
:104F300010922E0410922F0410923004109231041B
:104F400060E084E090E00E94E63360E081E290E07F
:104F50000E94E63360E085E090E00E94E63360E086
:104F600086E090E00E94E6336FEF87E090E00E94D9
:104F7000E63340E050E0BA0188E090E00E94F83368
:104F800060E08DE090E00E94E63340E050E0BA013E
:104F900088E190E00E94F83360E087E190E00E94B1
:104FA000E63340E050E0BA018CE190E00E94F83333
:104FB00060E080E290E00E94E63340E050E0BA0119
:104FC00088E190E00E94F8330C9481270C948827A4
:104FD000682F8EE090E00C94E6339C012E5F3F4FEB
:104FE000AC01485F5F4F80E02417350709F408954E
:104FF000F90191919F019923B9F38F5FF5CF662352
:1050000049F0FC01329608962191261729F0E817FD
:10501000F907D1F780E0089581E008959C01FC0133
:1050200032969FEF80E04191461751F09F3F19F46F
:10503000411101C0982F8F5F8630A9F79F3F09F477
:105040000895290F311D97FD3A95F901628308955E
:10505000FC01329608962191261303C0DF011197B7
:105060001C92E817F907B9F708950C940E280C94D0
:105070002828029626E0FC0111922A95E9F7089566
:10508000089508950C9441288091C406843059F104
:105090000E94422880E00E94BA070E947D1110926F
:1050A000400488E190E020E40FB6F894A89580933E
:1050B00060000FBE2093600083B7817F846083BF50
:1050C00083B7816083BF7894889583B78E7F83BFD1
:1050D0000FB6F894A8958091600088618093600075
:1050E000109260000FBE08950895CF930E9440284B
:1050F0000E94790A0E947428C0E08C2F0E94A109A6
:10510000811105C0CF5FCA30C1F7CF91089581E00A
:10511000FCCF08950C9489280E9481210E94171DBC
:105120000E94BA070E9475120C948A281F921FB61B
:105130001F9211248F939F93AF93BF93809140044C
:10514000811113C08091B6069091B706A091B80660
:10515000B091B9064196A11DB11D8093B6069093FA
:10516000B706A093B806B093B906BF91AF919F91CF
:105170008F911F901FBE1F90189582E084BD93E011
:1051800095BD9AEF97BD80936E0008952FB7F89460
:105190008091B6069091B706A091B806B091B90675
:1051A0002FBF08952FB7F8946091B6067091B70697
:1051B0008091B8069091B9062FBF08959C014FB712
:1051C000F8948091B6069091B706A091B806B09178
:1051D000B9064FBF821B930B089578941F921FB698
:1051E0001F9211248F939F93AF93BF938091B60624
:1051F0009091B706A091B806B091B9060196A11D8D
:10520000B11D8093B6069093B706A093B806B093ED
:10521000B906BF91AF919F918F911F901FBE1F90B4
:1052200018951092BA061092BB061092BC06109206
:10523000BD060895CF92DF92EF92FF926B017C0141
:105240000E94320B81110EC00E94D228C61AD70AC2
:10525000E80AF90AC092BA06D092BB06E092BC06F0
:10526000F092BD06FF90EF90DF90CF9008950F93DE
:105270001F930E94320B882321F01F910F910C94F1
:10528000D2280E94D2280091BA061091BB06209124
:10529000BC063091BD06600F711F821F931F1F91C6
:1052A0000F9108950E94320B81110C94C6280E9420
:1052B0003729CB01089587E797E7909301088093FA
:1052C000000888E19AE00FB6F894A89580936000F2
:1052D0000FBE90936000FFCF9093C7028093C602E9
:1052E00008950E943D27811102C00E94E6270E9476
:1052F000482780933F040E9455279093BF068093D0
:10530000BE060E944C27682F70E090E080E00E946B
:105310008F2460912A0470912B0480912C04909129
:105320002D040C94C9248091490408950895CF93C5
:10533000DF9300D00F92CDB7DEB79091C4069430C2
:1053400019F589837B836A8382E08093E9008FEF7C
:105350009091E800815095FD06C095ED9A95F1F782
:1053600000008111F5CF8091E80085FF0DC050E06D
:1053700040E063E070E0CE0101960E948F2B8091A7
:10538000E8008E778093E8000F900F900F90DF91E8
:10539000CF910895BC0184E00C949729BC0183E06F
:1053A0000C949729CF93DF93EC0181E08093E9007F
:1053B0008FEF9091E800815095FD06C095ED9A958C
:1053C000F1F700008111F5CF8091E80085FF14C04E
:1053D00050E040E068E070E0CE010E948F2B8091A9
:1053E000E8008E778093E80088E0FE01A1E4B4E055
:1053F00001900D928A95E1F7DF91CF910895809108
:10540000C306811109C00E941F2D0E947C2D80912E
:10541000E20084608093E20008951092C30608952C
:1054200008950895089542E061EC81E00E949B2C6C
:1054300042E261EC82E00C949B2C8091C6068330A2
:1054400009F45FC030F48130C1F1823009F49BC0AF
:1054500008958A3009F487C08B3009F46DC0893013
:1054600009F04EC08091C506813209F049C0809193
:10547000C9069091CA06029708F042C08091E800E0
:10548000877F8093E8008091E80082FF35C090918B
:10549000F3008091F200029729F48091F1008B7F54
:1054A000813021F48091F100809349048091E800DB
:1054B0008B778093E8000C94CF2C8091C506813ABD
:1054C000F9F48091E800877F8093E8008091C90615
:1054D0009091CA06892B61F468E081E494E070E061
:1054E0000E94DE2B8091E8008B778093E80008957E
:1054F00060E090E080E0F3CF8091C4068111C3CFDB
:1055000008958091C506813AD9F78091C906909196
:10551000CA06892BA9F78091E800877F8093E8006D
:105520008091E80080FFFCCF80917B018093F100A7
:105530008091E8008E77BDCF8091C506813201F75A
:105540008091C9069091CA06892BD1F68091E80016
:10555000877F8093E8000E94CF2C8091C7068093BC
:105560007B010C9481218091C506813249F680919E
:10557000E800877F8093E8000E94CF2C8091C806C6
:1055800080934A0408958091C506813A09F0B8CF06
:105590008091E800877F8093E8008091E80080FF99
:1055A000FCCF80914A04C2CF84B7877F84BF0FB6F7
:1055B000F894A895809160008861809360001092B3
:1055C00060000FBE80E890E00FB6F8948093610011
:1055D000909361000FBE0E948E1D0E941F2D0E949D
:1055E0007C2D8091E20084608093E20078940E9498
:1055F00005300E949C1D81E791E00E94121D809160
:10560000C4068530A9F00E94AD1D0E949A1D0E941B
:105610009B1DF5CF0E9444288091C206882341F04B
:105620000E947528882321F00E94792B0E948121F5
:105630008091C406853071F30E948C28E4CF0C94CD
:10564000212B292F33272330310519F168F421301C
:10565000310509F444C02230310509F445C090E019
:1056600080E030E020E025C02132310549F12232CE
:105670003105A9F780E490E02FEA3AE06115710561
:10568000C1F082E390E02DE73AE06130710589F0E6
:10569000E6CF99278130910581F0009729F0029794
:1056A000F1F6EAE0FAE002C0ECE2FAE0849190E080
:1056B0009F01FA01318320830895EAE1FAE0F6CFF1
:1056C00089E090E022E43AE06115710591F389E008
:1056D00090E02BE53AE06130710559F3C0CF82E1EB
:1056E00090E02BE63AE0E5CF8BE390E020E33AE070
:1056F000E0CF80E189BD82E189BD09B400FEFDCF24
:105700008091D8008F7D8093D8008091E0008260E6
:105710008093E0008091E00081FDFCCF0895AF927E
:10572000BF92CF92DF92FF920F931F93CF93DF939D
:105730006C01EB018A010E94EE2CF82E811123C02E
:105740000115110539F0F80180819181C81BD90B31
:10575000C80ED91EB12CA12C2097A9F08091E80089
:1057600085FD22C08091E8008E778093E8000115C6
:105770001105A1F0F80180819181A80EB91EB182B6
:10578000A08285E0F82E8F2DDF91CF911F910F9190
:10579000FF90DF90CF90BF90AF9008950E94EE2CC5
:1057A0008823D1F2F82EEFCFF60181916F0180931B
:1057B000F1002197FFEFAF1ABF0ACECFFC01809115
:1057C000CB069091CC0686179707A0F0611571055E
:1057D00029F49091E8009E779093E80090E061159D
:1057E000710551F4911108C08091E80082FF34C026
:1057F00080E00895BC01F2CF8091C4068823C1F1F6
:105800008530C1F18091E80083FD30C08091E800CF
:1058100082FDEACF8091E80080FFE1CF8091F30024
:105820002091F200382F6115710519F028303105EB
:1058300058F091E02830310509F090E02091E8001F
:105840002E772093E800CBCF81918093F1006150B7
:1058500071092F5F3F4FE7CF8091C406882341F045
:10586000853041F08091E80083FFBECF81E008954C
:1058700082E0089583E00895FC018091CB06909129
:10588000CC0686179707A0F06115710529F4809161
:10589000E8008E778093E80090E06115710551F47F
:1058A000911108C08091E80082FF35C080E0089522
:1058B000BC01F2CF8091C4068823C9F18530C9F1BB
:1058C0008091E80083FD31C08091E80082FDEACF3D
:1058D0008091E80080FFE1CF8091F3002091F200F9
:1058E000382F6115710519F02830310558F091E015
:1058F0002830310509F090E08091E8008E778093A0
:10590000E800CBCF84918093F1003196615071090A
:105910002F5F3F4FE6CF8091C406882341F085304A
:1059200041F08091E80083FFBDCF81E0089582E0DF
:10593000089583E00895982F973028F08F70809312
:10594000E90081E008959093E900242F762F50E03C
:10595000981731F07091EC002091ED005091F0001B
:1059600021FD02C09F5FE8CF3091EB003E7F309376
:10597000EB003091ED003D7F3093ED003091EB0076
:1059800031603093EB007093EC002093ED00509366
:10599000F0002091EE0027FDE5CF80E00895809192
:1059A000C50687FF13C08091E80082FF06C0809182
:1059B000E8008B778093E80004C08091C4068111D1
:1059C000F2CF08958091C4068823D9F38091E8002E
:1059D00080FFF8CF8091E8008E77ECCF2091E40033
:1059E0003091E50095E6A9012091EC00822F8170AD
:1059F00020FF06C08091E80080FF06C080E0089587
:105A00002091E80022FD1AC08091C406882389F005
:105A1000853089F08091EB0085FD0FC02091E40076
:105A20003091E50042175307F9F29150E1F684E016
:105A3000089582E0089583E0089581E008950E942A
:105A40008D2D0E94952DE0EEF0E0808181608083B5
:105A5000E8EDF0E080818F77808319BCA7EDB0E09E
:105A60008C918E7F8C9380818F7E80831092C30671
:105A700008950F931F93CF93DF930E948D2D0E9463
:105A8000952DC8EDD0E088818F77888388818068E4
:105A9000888388818F7D888319BC1092C4061092F8
:105AA000C0061092C2061092C10600EE10E0F80186
:105AB00080818B7F808388818160888342E060E081
:105AC00080E00E949B2CE1EEF0E080818E7F80835D
:105AD000E2EEF0E080818160808380818860808355
