:100000000C94870E0C94CE0E0C94CE0E0C94D91D2D
:100010000C94CE0E0C94CE0E0C94CE0E0C94CE0EF0
:100020000C94CE0E0C94CE0E0C944C2F0C942030CD
:100030000C94352A0C94CE0E0C94CE0E0C94CE0E4D
:100040000C94CE0E0C94CE0E0C94CE0E0C94CE0EC0
:100050000C94CE0E0C94A82A0C94CE0E0C94CE0EBA
:100060000C94CE0E0C94CE0E0C94CE0E0C94CE0EA0
:100070000C94CE0E0C94CE0E0C94CE0E0C94CE0E90
:100080000C94CE0E0C94CE0E0C94CE0E0C94CE0E80
:100090000C94CE0E0C94CE0E0C94CE0E0C94CE0E70
:1000A0000C94CE0E0C94CE0E0C94CE0E00007E7EE0
:1000B000183C6642000C1C70701C0C007474141404
:1000C0007C68007C7C0070782C247C7C0000000024
:1000D0000000000000000000000000000000000020
:1000E0000000000000008040402020202010101060
:1000F00010100808040404083040800000000000CC
:1001000000000000000000000000000000000000EF
:1001100000000000000000000000000000000000DF
:10012000000000000000000000808080000000004F
:10013000C06030180C84C6622333119171F1719143
:1001400011332362C6840C183060C0000000000028
:1001500000000000000000000000000000186482A1
:100160000202020202010000000080800000000084
:1001700000000000008000303000C0C1C1C204088F
:10018000102040800000008080808040404040205F
:10019000202020101010100808080808C404C40407
:1001A000C402C202C2010101010000000000FC0FF4
:1001B0000100F80E1F6D8C9494A4A6F9E0FFE0F9FD
:1001C000A6A494948C6D1F0EF800010FFC00000093
:1001D000000000000000000000000000C038040320
:1001E000000000000000000C0C0C0D010040A021DC
:1001F0002212111111090808080804040808101037
:10020000101010110F01010000000000000000009C
:10021000000000000000000000AAAAFFFFC3BF7F8B
:10022000037FBFC3FFFFAAAA0000000000001F78E1
:10023000C0000F387CDB9814141232CF03FF03CFB9
:100240003212141498DB7C380F00C0781F10101085
:100250001008080808080404040404020302020148
:10026000010101010102020404080808080807004E
:10027000000000000000000000000000000000007E
:10028000000000000000000000000000000000006E
:100290000000000000000000000282871F079F0787
:1002A0001C079F079F07028200000000201010100B
:1002B000110B0E0C18103123626644444747474423
:1002C000446662233110180C060301000000000090
:1002D000000000000000000000000000000000001E
:1002E000000000000000000000000000000000000E
:1002F00000000000000000000000000000000000FE
:1003000000000000000000000000000000000000ED
:1003100000000000000000000007080817000F019F
:1003200002010F000F02050800007E7E183C6642A5
:10033000000C1C70701C0C00747414147C68007C1D
:100340007C0070782C247C7C000000000000000001
:10035000000000000000000000000000000000009D
:1003600000008040402020202010101010100808AD
:100370000404040830408000000000000000000079
:10038000000000000000000000000000000000006D
:10039000000000000000000000000000000000005D
:1003A000000000000080808000000000C060301865
:1003B0000C84C6622333119171F171911133236260
:1003C000C6840C183060C00000000000000000006F
:1003D0000000000000000000001864820202020217
:1003E000020100000000808000000000000000000A
:1003F000008000303000C0C1C1C20408102040801D
:10040000000000808080804040404020202020105C
:100410001010100808080808C404C404C402C2026A
:10042000C2010101010000000000FC0F0100F80EF4
:100430001F6D8C9494A4A6F9E0FFE0F9A6A494940F
:100440008C6D1F0EF800010FFC0000000000000082
:100450000000000000000000C0380403000000009D
:100460000000000C0C0C0D010040A0212212111103
:1004700011090808080804040808101010101011C9
:100480000F0101000000000000000000000000005B
:100490000000000000AAAAFFFFC3BF7F037FBFC305
:1004A000FFFFAAAA0000000000001F78C0000F385C
:1004B0007CDB9814141232CF03FF03CF32121414D2
:1004C00098DB7C380F00C0781F1010101008080847
:1004D00008080404040404020302020101010101EA
:1004E00001020204040808080808070000000000D0
:1004F00000000000000000000000000000000000FC
:1005000000000000000000000000000000000000EB
:1005100000000000000282871F079F071C079F073B
:100520009F0702820000000020101010110B0E0C1B
:1005300018103123626644444747474444666223A7
:100540003110180C0603010000000000000000003C
:10055000000000000000000000000000000000009B
:10056000000000000000000000000000000000008B
:10057000000000000000000000000000000000007B
:10058000000000000000000000000000000000006B
:10059000000000000007080817000F0102010F000B
:1005A0000F02050800007E7E183C6642000C1C709D
:1005B000701C0C00747414147C68007C7C007078CF
:1005C0002C247C7C000000000000000000000000E3
:1005D000000000000000000000000000000000809B
:1005E00080404040402020202010080402020418CF
:1005F000608000000000000000000000000000001B
:1006000000000000000000000000000000000000EA
:1006100000000000000000000000000000000000DA
:100620000080808000000000C06030180C84C6622A
:100630002333119171F1719111332362C6840C1827
:100640003060C0000000000000000000000000005A
:1006500000000000003CC20101020204040201008B
:10066000000000000000000000000000000000602A
:100670006000818282840810204080000000008099
:100680008080804040404020202020101010100822
:1006900008080808C404C404C402C202C20101015B
:1006A000010000000000FC0F0100F80E1F6D8C948B
:1006B00094A4A6F9E0FFE0F9A6A494948C6D1F0E13
:1006C000F800010FFC000000000000000000000026
:1006D00000000000807019060000000000000018F3
:1006E00018181B030040A02224141212120B080831
:1006F0000808050509091010101010110F0101005C
:1007000000000000000000000000000000000000E9
:1007100000AAAAFFFFC3BF7F037FBFC3FFFFAAAA30
:100720000000000000001F78C0000F387CDB981428
:10073000141232CF03FF03CF3212141498DB7C382B
:100740000F00C0781F1010101008080808080404D3
:100750000404040203020201010101010102020476
:100760000408080808080700000000000000000056
:100770000000000000000000000000000000000079
:100780000000000000000000000000000000000069
:10079000000282871F079F071C079F079F0702828F
:1007A0000000000020101010110B0E0C1810312347
:1007B0006266444447474744446662233110180C3C
:1007C000060301000000000000000000000000001F
:1007D0000000000000000000000000000000000019
:1007E0000000000000000000000000000000000009
:1007F00000000000000000000000000000000000F9
:1008000000000000000000000000000000000000E8
:100810000007080817000F0102010F000F0205086A
:1008200000007E7E183C6642000C1C70701C0C00A0
:10083000747414147C68007C7C0070782C247C7C9C
:1008400000000000000000000000000000000000A8
:100850000000008080000000000080404020202038
:1008600020101010100804020101020C304080001A
:100870000000000000000000000000000000000078
:100880000000000000000000000000000000000068
:1008900000000000000000000000000000808080D8
:1008A00000000000C06030180C84C6622333119130
:1008B00071F1719111332362C6840C183060C0004D
:1008C0000000000000000000000000000000000028
:1008D000001EE10000010102020100000000808012
:1008E0000000000000000000008000303000C0C1A7
:1008F000C1C2040810204080000000808080804039
:10090000404040202020201010101008080808083F
:10091000C404C404C402C202C201010101000000F7
:100920000000FC0F0100F80E1F6D8C9494A4A6F932
:10093000E0FFE0F9A6A494948C6D1F0EF800010F5F
:10094000FC000000000000000000000000000000AB
:1009500080700C03000000000000000C0C0C0D0166
:100960000040A021221211111109080808080404EE
:1009700008081010101010110F01010000000000F5
:1009800000000000000000000000000000AAAAFF14
:10099000FFC3BF7F037FBFC3FFFFAAAA0000000001
:1009A00000001F78C0000F387CDB9814141232CF7F
:1009B00003FF03CF3212141498DB7C380F00C07889
:1009C0001F1010101008080808080404040404028A
:1009D00003020201010101010102020404080808E6
:1009E00008080700000000000000000000000000F0
:1009F00000000000000000000000000000000000F7
:100A000000000000000000000000000000028287DB
:100A10001F079F071C079F079F0702820000000017
:100A200020101010110B0E0C181031236266444474
:100A300047474744446662233110180C06030100FF
:100A400000000000000000000000000000000000A6
:100A50000000000000000000000000000000000096
:100A60000000000000000000000000000000000086
:100A70000000000000000000000000000000000076
:100A8000000000000000000000000000000708084F
:100A900017000F0102010F000F02050800007E7E03
:100AA000183C6642000C1C70701C0C00747414140A
:100AB0007C68007C7C0070782C247C7C000000002A
:100AC0000000000000000000000000000000000026
:100AD0000000000000008040402020202010101066
:100AE00010080804020202043840800000000000E0
:100AF00000000000000000000000000000000000F6
:100B000000000000000000000000000000000000E5
:100B10000000000000000000008080800000000055
:100B2000C06030180C84C6622333119171F1719149
:100B300011332362C6840C183060C000000000002E
:100B4000000000000000000000000000001CE201A6
:100B5000010202020201000000008080000000008B
:100B600000000000008000303000C0C1C1C2040895
:100B70001020408000000080808080404040402065
:100B8000202020101010100808080808C404C4040D
:100B9000C402C202C2010101010000000000FC0FFA
:100BA0000100F80E1F6D8C9494A4A6F9E0FFE0F903
:100BB000A6A494948C6D1F0EF800010FFC00000099
:100BC00000000000000000000000000080700C0326
:100BD000000000000000000C0C0C0D010040A021E2
:100BE000221211111109080808080404080810103D
:100BF000101010110F0101000000000000000000A3
:100C0000000000000000000000AAAAFFFFC3BF7F91
:100C1000037FBFC3FFFFAAAA0000000000001F78E7
:100C2000C0000F387CDB9814141232CF03FF03CFBF
:100C30003212141498DB7C380F00C0781F1010108B
:100C4000100808080808040404040402030202014E
:100C50000101010101020204040808080808070054
:100C60000000000000000000000000000000000084
:100C70000000000000000000000000000000000074
:100C80000000000000000000000282871F079F078D
:100C90001C079F079F070282000000002010101011
:100CA000110B0E0C18103123626644444747474429
:100CB000446662233110180C060301000000000096
:100CC0000000000000000000000000000000000024
:100CD0000000000000000000000000000000000014
:100CE0000000000000000000000000000000000004
:100CF00000000000000000000000000000000000F4
:100D000000000000000000000007080817000F01A5
:100D100002010F000F02050800007E7E183C6642AB
:100D2000000C1C70701C0C00747414147C68007C23
:100D30007C0070782C247C7C000000000000000007
:100D400000000000000000000000008080000000A3
:100D500000008040402020202010101010080402C5
:100D60000101020C30408000000000000000000083
:100D70000000000000000000000000000000000073
:100D80000000000000000000000000000000000063
:100D9000000000000080808000000000C06030186B
:100DA0000C84C6622333119171F171911133236266
:100DB000C6840C183060C000000000000000000075
:100DC0000000000000000000001EE1000001010220
:100DD0000281808000008080000000000000000090
:100DE0000080003030000001E11A06093135018A27
:100DF0007C000080808080404040402020202010E7
:100E00001010100808080808C404C404C402C20270
:100E1000C2010101010000000000FC0F0100F80EFA
:100E20001F6D8C9494A4A6F9E0FFE0F9A6A4949415
:100E30008C6D1F0EF800010FFC0000000000000088
:100E4000000000000000000080700C030000180685
:100E500005989984C37C4141404020212212111100
:100E60001109080808080404040404040202020129
:100E7000010101000000000000000000000000006F
:100E80000000000000AAAAFFFFC3BF7F037FBFC30B
:100E9000FFFFAAAA0000000000001F78C0000F3862
:100EA0007CDB9814141232CF03FF03CF32121414D8
:100EB00098DB7C380F00C0781F101010100808084D
:100EC00008080404040404020302020101010101F0
:100ED0000100000000000000000000000000000011
:100EE0000000000000000000000000000000000002
:100EF00000000000000000000000000000000000F2
:100F000000000000000282871F079F071C079F0741
:100F10009F0702820000000020101010110B0E0C21
:100F200018103123626644444747474444666223AD
:100F30003110180C06030100000000000000000042
:100F400000000000000000000000000000000000A1
:100F50000000000000000000000000000000000091
:100F60000000000000000000000000000000000081
:100F70000000000000000000000000000000000071
:100F8000000000000007080817000F0102010F0011
:100F90000F02050800007E7E183C6642000C1C70A3
:100FA000701C0C00747414147C68007C7C007078D5
:100FB0002C247C7C000000000000000000000000E9
:100FC0000000000000000080800000000000804061
:100FD0004020202020101010100804020101020CF3
:100FE00030408000000000000000F8F8F8F8000031
:100FF00000000080800000000000000000000000F1
:1010000000000000000000000000000000000000E0
:101010000080808000000000C06030180C84C66230
:101020002333119171F1719111332362C6840C182D
:101030003060C00000000000000000000000000060
:1010400000000000001EE10000010102028180801A
:1010500000008080000000000000000000800030E0
:10106000300000010102040810204387070100B886
:10107000BCBE9F5F5F4F4C20202020101010100836
:1010800008080808C404C404C402C202C201010161
:10109000010000000000FC0F0100F80E1F6D8C9491
:1010A00094A4A6F9E0FFE0F9A6A494948C6D1F0E19
:1010B000F800010FFC00000000000000000000002C
:1010C0000000000080700C03000018060598998449
:1010D000437C41414040202122121111110908088E
:1010E0000808040408081010101010110F013D7CAE
:1010F000FCFCFCFCFC3C0C000000000000000000BC
:1011000000AAAAFFFFC3BF7F037FBFC3FFFFAAAA36
:101110000000000000001F78C0000F387CDB98142E
:10112000141232CF03FF03CF3212141498DB7C3831
:101130000F00C0783F1010101008080808080404B9
:101140000404040203020201010101010100000084
:10115000000000000000000000000000000000008F
:10116000000000000000000000000000000000007F
:101170000001030300000000000000000000000068
:10118000000282871F079F071C079F079F07028295
:101190000000000020101010110B0E0C181031234D
:1011A0006266444447474744446662233110180C42
:1011B0000603010000000000000000000000000025
:1011C000000000000000000000000000000000001F
:1011D000000000000000000000000000000000000F
:1011E00000000000000000000000000000000000FF
:1011F00000000000000000000000000000000000EF
:101200000007080817000F0102010F000F02050870
:1012100000007E7E183C6642000C1C70701C0C00A6
:10122000747414147C68007C7C0070782C247C7CA2
:1012300000000000000000000000000000000000AE
:10124000000000808000000000008040402020203E
:1012500020101010100804020101020C3040800020
:10126000000000000000000000000000000000007E
:10127000000000000000000000000000000000006E
:1012800000000000000000000000000000808080DE
:1012900000000000C06030180C84C6622333119136
:1012A00071F1719111332362C6840C183060C00053
:1012B000000000000000000000000000000000002E
:1012C000001EE10000010102020100000000808018
:1012D000000000000000000000800030300000012D
:1012E000E11A06093135018A7C0000808080804047
:1012F0004040402020202010101010080808080846
:10130000C404C404C402C202C201010101000000FD
:101310000000FC0F0100F80E1F6D8C9494A4A6F938
:10132000E0FFE0F9A6A494948C6D1F0EF800010F65
:10133000FC000000000000000000000000000000B1
:1013400080700C030000000000000000000001019C
:101350000040A021221211111109080808080404F4
:101360000404040402020201010101000000000063
:1013700000000000000000000000000000AAAAFF1A
:10138000FFC3BF7F037FBFC3FFFFAAAA0000000007
:1013900000001F78C0000F387CDB9814141232CF85
:1013A00003FF03CF3212141498DB7C380F00C0788F
:1013B0001F10101010080808080804040404040290
:1013C000037A7A79797979393102020404080808B4
:1013D00088888780000000000000000000000000F6
:1013E00000000000000000000000000000000000FD
:1013F00000000000000000000000000000028287E2
:101400001F079F071C079F079F070282000000001D
:1014100020101010110B0E0C18103123626644447A
:1014200047474744446662233110180C0603010005
:1014300000000000000000000000000000000000AC
:10144000000000000030787CFEFF3F070000000035
:10145000FFFF7F7F3F3E1C180000000000000000DF
:10146000000000000000000000000000000000007C
:101470000000000000000000000000000007080855
:1014800017000F0102010F000F020508556E646579
:1014900066696E65640052474220202000526169EF
:1014A00073650A004C6F7765720A004465660A002E
:1014B0000A4C617965720A000A000A000A002020BD
:1014C0004E20202000202041200A0020204D200A0C
:1014D00000202052200A00202049200A0020204E0F
:1014E000200A000A0029001E001F002000210022FF
:1014F000002B0014001A00080015001700E000047B
:10150000001600070009000A00E1001D001B00068C
:1015100000190005000000E200E30001512C00A8C2
:10152000003500270026002500240023002D00138D
:101530000012000C0018001C00340033000F000ED5
:10154000000D000B002E003800370036001000118F
:10155000000000E7002A00025128003000010001CD
:101560000001000100010001003A003B003C003D89
:10157000003E003F0035001E021F02200221022211
:101580000201000100010001000100010000000152
:1015900000010001000100010080008100A800019D
:1015A00000010001004500440043004200410040AA
:1015B00000350227024F0052005100500031023026
:1015C000022F022E022D0200000000010001000186
:1015D0000001000100010001000100010001000103
:1015E0000035001E001F002000210022003A003BB1
:1015F000003C003D003E003F0040004100420043EF
:10160000004400450000000100010001000100014C
:10161000000100010001000100010001000100279C
:10162000002600250024002300000000004F005287
:101630000051005000310030002F002E002D002EF0
:101640000200000100010001000100010000000093
:10165000000000000000000000000000000000008A
:10166000000000000000000000000000000000007A
:101670000000000000000000000000000000000169
:101680000001000100010000000000000000000057
:10169000000000000000000000000000000000004A
:1016A000000000000000000000000000000000003A
:1016B0000000000000000000000000010001000127
:1016C000000100000000AE00AF00DA0281FFD9F196
:1016D000DB20A4A62EAF00A0C000A1C800AED5801C
:1016E000A81FD300408D1420000000000000003E21
:1016F0005B4F5B3E003E6B4F6B3E001C3E7C3E1CD6
:1017000000183C7E3C18001C577D571C001C5E7F57
:101710005E1C0000183C180000FFE7C3E7FF000054
:101720001824180000FFE7DBE7FF0030483A060EF8
:1017300000262979292600407F05050700407F05FE
:10174000253F005A3CE73C5A007F3E1C1C0800081D
:101750001C1C3E7F0014227F2214005F5F005F5F2D
:101760000006097F017F00006689956A006060605D
:1017700060600094A2FFA2940008047E0408001098
:10178000207E20100008082A1C0800081C2A0808CF
:10179000001E10101010000C1E0C1E0C0030383EE5
:1017A000383000060E3E0E0600000000000000006B
:1017B000005F000000000700070000147F147F1482
:1017C00000242A7F2A120023130864620036495637
:1017D000205000000807030000001C224100000008
:1017E00041221C00002A1C7F1C2A0008083E080811
:1017F0000000807030000008080808080000006041
:101800006000002010080402003E5149453E0000DF
:10181000427F4000007249494946002141494D3309
:10182000001814127F10002745454539003C4A49ED
:10183000493100412111090700364949493600461E
:101840004949291E00000014000000004034000037
:101850000000081422410014141414140000412242
:101860001408000201590906003E415D594E007CF2
:101870001211127C007F49494936003E4141412204
:10188000007F4141413E007F49494941007F0909AC
:101890000901003E41415173007F0808087F0000A4
:1018A000417F4100002040413F01007F0814224158
:1018B000007F40404040007F021C027F007F040800
:1018C000107F003E4141413E007F09090906003E6C
:1018D0004151215E007F09192946002649494932B4
:1018E0000003017F0103003F4040403F001F2040B4
:1018F000201F003F4038403F00631408146300037A
:1019000004780403006159494D4300007F4141417F
:1019100000020408102000004141417F0004020140
:10192000020400404040404000000307080000203F
:1019300054547840007F28444438003844444428B4
:1019400000384444287F0038545454180000087E5E
:101950000902001824241C78007F08040478000081
:10196000447D4000002040403D00007F102844009E
:101970000000417F4000007C04780478007C08046B
:101980000478003844444438007C18242418001893
:101990002424187C007C080404080048545454246F
:1019A0000004043F4424003C4040207C001C2040B4
:1019B000201C003C4030403C004428102844004C8F
:1019C0009090907C004464544C44000008364100E0
:1019D000000000770000000041360800000201020C
:1019E0000402003C2623263C00000000000080800A
:1019F0008080000000000080E070180C1830E0804B
:101A0000000010F8901030783010B8FC381000004A
:101A100000000000F8FCF8000000000000000000DA
:101A2000000000001C9C1C00000000F8FCF80000F6
:101A3000000000001CFCF8C000000000000080E076
:101A4000F87C1C000000F0FCFCFC1C1C1C1C1C1C7A
:101A50001C1C000000000000C0F0F8381C1C1C1CFE
:101A60001C1C3CF8F0E000E0F0F0F0E0ECEEF7F3E6
:101A70007020007C7C7C7E007E7E7E7F7F7F0000ED
:101A800080C0E07E5B4F5BFEC00000C000DCD7DEA4
:101A9000DEDED7DC00C00000000000000000000017
:101AA00000000000000000000000000000000FBC6B
:101AB000E0818181838382870C183060C000001F21
:101AC000FE90B9FFBB91983C1811133F1100000024
:101AD00000000000FFFFFF00000000000000000009
:101AE00000000000FFFFFF00000000FFFFFF0000FC
:101AF000000000000000030F7FF8E080F0FC3F0FC3
:101B00000100000000003F3F3F1C1C1C1C1C3C78D7
:101B1000F8F0E08000000000C3E7FF7E3C387878F2
:101B20007070F8FFDF87000F1F3F7F7F7F7F7F3F51
:101B30001E0C001F1F1F3F003F3F3F7F7F7F003075
:101B40007B7F7830202030787F3B0003000F7F0FB1
:101B50000F0F7F0F000300000000000000000000D6
:101B6000000000000000000000183C24666341C132
:101B70008180808080808081C14162386C4CC681C8
:101B800081808080808081C14362361C1800000003
:101B900000000000FFFFFFC0C0C0C0C0C0C0C0C088
:101BA000800000007FFF7F000000007FFFFFC080FB
:101BB000000000E0E0C0C0C0E0F97F1F07000000A7
:101BC00000000000000070F0E0E0C0C0C0C0E0F025
:101BD000F87F3F0F0000000F3F7FF9E0E0C0C0C07A
:101BE000C0C0E0F97F3F1F000000000000000000BF
:101BF00000000000000000000000000000000000E5
:101C000000000000000000000000000000000000D4
:101C100000000000000000000000000000000000C4
:101C20000000000000000000000E034C0069006C82
:101C300000790035003800000010036C0069006C6A
:101C400000690075006D00730000000403090409B9
:101C5000023B00020100A0FA090400000103010197
:101C6000000921110100012240000705810308003D
:101C70000A0904010001030000000921110100010B
:101C80002232000705820320000A12011001000021
:101C90000008D8042DEB00010102000105010980B4
:101CA000A101850319012AB700150126B700950186
:101CB00075108100C0050C0901A101850419012AD4
:101CC000A002150126A002950175108100C0050132
:101CD0000906A101050719E029E715002501950866
:101CE000750181029501750881010507190029FF19
:101CF000150026FF009506750881000508190129C1
:101D000005950575019102950175039101C0112496
:101D10001FBECFEFDAE0DEBFCDBF04B603FE27C0A3
:101D20008091E4049091E504A091E604B091E70469
:101D30008730904BA740B04BD1F41092E40410923E
:101D4000E5041092E6041092E70414BE84B7877F7E
:101D500084BF0FB6F894A895809160008861809345
:101D60006000109260000FBEE0E0F8E3099511E01A
:101D7000A0E0B1E0E6E5FEE602C005900D92A23BD0
:101D8000B107D9F724E0A2EBB1E001C01D92A43E57
:101D9000B207E1F70E94862C0C9405370C940000E2
:101DA0000C944F100E944D158230E8F48091B501DB
:101DB00090E0019665E070E00E9489338093B50160
:101DC00024E030E0281B390B4CE752E0249FC0018F
:101DD000259F900D349F900D11246CE772E084557F
:101DE0009F4F0E9457180E944D15823050F00E945C
:101DF0004D158A3030F46CE772E088E19DE00E9476
:101E000057180E944D158A30D8F08091B40190E0A7
:101E10000196817099278093B40121E030E0281B5E
:101E2000390B4CE752E0249FC001259F900D349F51
:101E3000900D11246CE772E08C56904F0C9457185B
:101E400008950F9303E022E041E00E949B100F9160
:101E500008950E941B15811102C082E0089583E05D
:101E6000089560E083EE94E10E94451860E08DEDF6
:101E700094E10E94451860E087ED94E10E944518C6
:101E800060E081ED94E10E94451860E08BEC94E104
:101E90000E94451860E085EC94E10E94451860E0DE
:101EA0008EEB94E10E94451860E08CEB94E10C9479
:101EB00045180E941B15882309F451C060E08AEB85
:101EC00094E10E9445180E944D151F928F938DE159
:101ED00091E09F938F938BEA92E09F938F930E9460
:101EE000FA3360E08BEA92E00E94291860E088EB08
:101EF00094E10E94451860E080EB94E10E9445184F
:101F000060918A0270918B0280918C0290918D0277
:101F10000E944E110F900F900F900F900F900F9006
:101F2000813089F0882341F0823089F0833099F044
:101F300060E08CE894E103C060E08BEA94E10E94E9
:101F400045180C94310F60E084EA94E1F8CF60E02A
:101F50008DE994E1F4CF60E086E994E1F0CF0E944E
:101F60004D15882309F444C00E9497186091BA0166
:101F70007091BB018091BC019091BD010E948C2A9F
:101F8000693C71058105910560F00E94712A60939A
:101F9000BA017093BB018093BC019093BD010E9474
:101FA000D20E0E94712A6093B6017093B70180939C
:101FB000B8019093B90166E080E00E9446170E9444
:101FC0004D151F928F938DE191E09F938F938BEA34
:101FD00092E09F938F930E94FA330F900F900F908F
:101FE0000F900F900F9060E08BEA92E00C9429180C
:101FF0006091B6017091B7018091B8019091B901DB
:102000000E948C2A613A76488140910518F00E941E
:10201000A519D1CF6091BA017091BB018091BC012B
:102020009091BD010E948C2A693C71058105910542
:1020300010F20E94712A6093BA017093BB018093E1
:10204000BC019093BD010E94D20EB5CFCF93C62F95
:10205000811110C060918A0270918B0280918C0274
:1020600090918D020E944E11813069F0882321F0F9
:10207000823071F0CF9108958AEAC11101C089EAD6
:10208000CF910C94E22081E5C111FACF82E5F8CF1F
:102090008EE4C111F5CF8BE4F3CF81E0089581E0A8
:1020A000089508950C9451101F93CF93DF9300D09F
:1020B00000D00F92CDB7DEB749835A836B8330913E
:1020C000290289819A8131111DC06623B9F022232A
:1020D000A9F00E94AC27182F682F89819A810E944D
:1020E000552769817A81812F0F900F900F900F9063
:1020F0000F90DF91CF911F910C94AA110E9483271A
:10210000182FEFCF0E94AC2769817A81EDCFFC01B7
:10211000262F408151816281738184810C945410F7
:10212000CF93DF93EC0160E00E948710BE01DF9146
:10213000CF910C9452108F929F92AF92BF92CF92F8
:10214000DF92EF92FF920F931F936B017C0181E06E
:1021500090E0A0E0B0E04C015D0104C0880C991C47
:10216000AA1CBB1C4A95D2F7B501A4014C015D0124
:1021700004C0880C991CAA1CBB1C2A95D2F74829BC
:1021800059296A297B2904C0880F991FAA1FBB1FE0
:102190000A95D2F78A019B010C211D212E213F2196
:1021A000041715072607370789F48C299D29AE29BE
:1021B000BF29BC01CD011F910F91FF90EF90DF90DF
:1021C000CF90BF90AF909F908F90089580959095FD
:1021D000A095B0958C219D21AE21BF21EACF0E9410
:1021E000E528811102C00E9489290C9485130E9460
:1021F000CF150C94881308950E944B230E94FB1066
:102200002FEF84E39CE0215080409040E1F700C034
:1022100000000C940D2B0F931F93CF93DF93EC01D1
:1022200061E00E9487108C018A81882319F0C8011F
:102230000E947915BE01C8010E94D00E882329F1A1
:10224000BE01C8010E94391A8823F9F0BE01C801F5
:102250000E948B1A8823C9F0BE01C8010E94AE1BE0
:10226000882399F08A81882339F001158CE51807B5
:1022700051F00F3D1C4579F0CE01DF91CF911F91B8
:102280000F910C944D100E94FC1080E0DF91CF91D3
:102290001F910F9108950E948929F7CFCF92DF9265
:1022A000EF92FF926C01EE24FF2420E0C114D104D0
:1022B000E104F10419F0C701B60120E1C72ED82EC0
:1022C000E92EFF24C114D104E104F10419F0285FC0
:1022D000C701B6016B017C0154E0F694E794D794F2
:1022E000C7945A95D1F7C114D104E104F10419F04F
:1022F0002C5FC701B6016B017C0142E0F694E794C4
:10230000D794C7944A95D1F7C114D104E104F104DC
:1023100019F02E5FC701B601969587957795679559
:10232000672B682B692B09F02F5F822FFF90EF90AE
:10233000DF90CF90089508950C949B1181E008954B
:102340000C949E11CF93C82F0E949C118C2FCF917B
:102350000C94A011972F70E026E0929F600D711DE4
:102360001124FB019CE3899FE00DF11D1124EE0F68
:10237000FF1FEB51FB4E859194910895CF93DF930E
:102380000E94AA110E94AA12EC01811522E592076F
:10239000E8F5811531E5930708F0ACC0883E91055A
:1023A00010F5803E910570F5883A910570F4853AF4
:1023B000910508F078C08130910521F1009711F165
:1023C000049700F5D0E0C0E01DC08F3B9105D0F729
:1023D000C85AD0E0CC0FDD1FC95DDE4F0990D8810F
:1023E000C02DD4640FC0811540E5940708F066C085
:1023F000C11580E4D80708F05EC0CE019A9581151A
:102400009F4100F7CE01DF91CF910895811536E508
:10241000930718F5811545E5940708F083C0C115A9
:1024200084E5D80708F079C09C2F969596959E0173
:1024300023703327C115D34508F461C0C1E0D0E053
:1024400002C0CC0FDD1F2A95E2F730E2939FC00156
:102450001124C82BD92BDA68D5CFC1158AE5D80746
:1024600078F4C11599E5D90708F066C0C11528E5CB
:10247000D20708F4A7CFDC2FCC27C06FD06AC2CF19
:10248000CE0190568115904208F09CCF8D2F8F7110
:102490000E94411390E0982F882788279F719C0104
:1024A0002C2BE90147C0C55AD0E0CB5ADE4FC8817A
:1024B000D0E0D064A7CFDF70D06AA4CFE4E09695D7
:1024C0008795EA95E1F783702C2F26952695237042
:1024D00040E2249F90011124382B8C2F8370C1E09F
:1024E000D0E002C0CC0FDD1F8A95E2F7C22BD32BC0
:1024F000DC6888CFD82FCC27C16FD06A83CFC1E0EA
:10250000D0E002C0CC0FDD1F2A95E2F720E2929FB7
:10251000C0011124C82BD92BEBCFDC2FCC27C46FE3
:10252000D06A70CF0E944113C82FD0E0DC2FCC2797
:10253000CC27DF71D06266CF8C2F8F700E94411341
:1025400034E0D695C7953A95E1F7CF709C2FEC0112
:10255000D06958CF82389105B1F1B0F4813391053B
:1025600009F475C048F48932910509F469C08A32CA
:10257000910509F473C008958533910509F459C094
:102580008933910501F10895833E9105A9F138F44D
:10259000803E9105F9F0823E910549F10895863E0D
:1025A0009105A9F1873E9105C9F1843E910519F580
:1025B0002091D60421FF1FC08091D50484FD14C052
:1025C00087EE90E008952091D5042370A1F080EE6D
:1025D00090E008952091D50420FD47C03091D604A5
:1025E00030FF09C024FF44C090E080E004C0209187
:1025F000D50422FDF7CF08952091D50422FD3BC0DC
:102600003091D60430FDE3CF24FFF5CFEDCF2091FC
:10261000D50423FFF0CF24FDE7CFD2CF2091D504FE
:1026200023FD2CC03091D60431FFEECF84EE90E034
:1026300008952091D50425FFDECF89E290E008952A
:102640002091D50425FFD7CF85E390E00895209110
:10265000D50426FFD0CF8AE290E008952091D504DA
:1026600026FFC9CF81E390E0089589E390E00895C3
:1026700083EE90E0089582EE90E0089586EE90E07B
:1026800008959091D50492FF06C0282F2871283014
:10269000F9F4877F846093FF06C0282F28712831C2
:1026A000F1F4877E84612091D60420FF06C0382F84
:1026B00038713830D9F4877F816021FF06C0282F18
:1026C00028712831D1F4877E816194FD877E089539
:1026D000282F24712430F9F68B7F8860DCCF282FD7
:1026E0002471243101F78B7E8861DDCF382F317161
:1026F000313019F78E7F8860E0CF282F217121318A
:1027000021F78E7E8861E1CF08950C94841308959B
:102710000C948713E82FF0E0E154FD4F8081089579
:10272000089580EA8A95F1F7089500C008950C9401
:102730009113F894E82FE295EF70F0E031A1282F83
:102740002F7081E090E001C0880F2A95EAF7982F5A
:102750009095932391A392A1892B82A378940895B5
:1027600008950E943915809100018091000195E043
:10277000811190E09093CA0285E0891B8093C90281
:1027800086E60E94991387E90E94991386EC0E94BD
:10279000991384E30E94991385E30E94991386EFAD
:1027A0000E94991387EF0E94991381E30E94991365
:1027B00083E30E94991382E30E94991386E30E94A7
:1027C0009913E5EBF2E0AFEBB2E08FEB92E0119200
:1027D0001D928E179F07D9F785E00E94E4140E948E
:1027E000EF100C944315FF920F931F93CF93DF9339
:1027F00000D000D00F92CDB7DEB70E941B15F82E87
:102800006091CA02882309F450C08E010F5F1F4FE8
:1028100085E0F80111928A95E9F7862F90E0B801DA
:1028200081549D4F0E94E41B811122C08091BE0102
:102830008F5F8093BE018630B0F1E091C902F0E075
:10284000E154FD4FD801CE01069611921D92A817B2
:10285000B907D9F70E94F7108F2D0F900F900F90A6
:102860000F900F90DF91CF911F910F91FF900895DE
:102870001092BE01A091C902B0E0A154BD4F9E01CB
:102880002A5F3F4FF12C4D91F80191918F0149172B
:1028900031F0AD0141505109FA019083F82E021731
:1028A000130789F7D7CFF12CD5CF70E061547D4F56
:1028B0008091C90290E081549D4F0E94151C0E9496
:1028C000B013CACFCF92DF92EF92FF920F931F9374
:1028D000CF93DF930EE511E085EBE82E82E0F82E32
:1028E000C0E0CC24C394D12CF80181918F01F894DD
:1028F000E82FE295EF70F0E021A18F70A60102C0F1
:10290000440F551F8A95E2F7CA01922F982B91A385
:1029100092A18095892382A378940E949513E8E57B
:10292000F1E030E020E0D0E04191A42FA295AF701B
:10293000B0E090968C9190E04F7002C0959587958D
:102940004A95E2F780FD3CC08C2D022E01C0880F15
:102950000A94EAF7D82B2F5F3F4F2630310521F735
:10296000F801319780810E9499130E949713F70113
:102970008081D81739F1D08381E0C82BFFEFEF1A9F
:10298000FF0A41E00336140709F0AECF6091CA0296
:1029900070E061547D4F2C2F45E085EB92E00E9462
:1029A000E5140E94F313C11101C0C82F8C2FDF91D1
:1029B000CF911F910F91FF90EF90DF90CF900895EE
:1029C00080E0C8CF80E0D9CF0895FF920F931F9386
:1029D000CF93DF93F82E092F162FD72FC42F222342
:1029E00049F081E08093C1010E94652A9093C00163
:1029F0008093BF018091C1018823A1F08091BF0124
:102A00009091C0010E947D2A069760F0EF2DF02F73
:102A1000A12FBD2FCE0FDF2FD11DEC17FD0741F4E5
:102A20001092C101DF91CF911F910F91FF900895F6
:102A300081918D93F2CF8091C201811111C080915B
:102A4000D80080618093D8008AE18A95F1F700C0B0
:102A50009091D900892F817090FF82E08093C2010C
:102A600081E09091C201913009F080E008950C94CA
:102A70001B150E943715809300010E941B158111C0
:102A80000C94D81B08950E941B15811102C00C9450
:102A9000DE1B08958093C50108958091C5010895B6
:102AA0009C013056211540E2340748F0305E211574
:102AB00040E1340720F0315C21153F4178F499273B
:102AC0009C01245031092432310578F02752310914
:102AD00081E02E30310550F080E008958F3F910560
:102AE00079F370F390E080E0EBCF81E008950C94EF
:102AF0005015CF92DF92EF92FF92CF93DF930E9417
:102B00007715882309F444C08091C3019091C401D2
:102B10000097C1F10E947D2A6091C501C62FD0E0C7
:102B20009C0150E040E060E67AEE80E090E00E9498
:102B30009D33CA01B90125E030E040E050E00E9439
:102B40009D3330E02C1B3D0BB901330F880B990BE3
:102B50000E94703227EA39E747E45DE30E94FC32C5
:102B60006B017C01BE01DD0F880B990B0E94703256
:102B70009B01AC01C701B6010E94D3310E943F32D4
:102B80006093C5010E94652A9093C4018093C3019C
:102B9000DF91CF91FF90EF90DF90CF900895CF928B
:102BA000DF92EF92FF92CF93DF938091C3019091D8
:102BB000C4010E947D2A893E934060F16091C50165
:102BC000C62FD0E0662777276C1B7D0B072E000CE5
:102BD000880B990B0E94703227EA39E747E45DE3DE
:102BE0000E94FC326B017C01BE01DD0F880B990B4A
:102BF0000E9470329B01AC01C701B6010E94D33123
:102C00000E943F326093C5010E94652A9093C401DF
:102C10008093C301DF91CF91FF90EF90DF90CF9031
:102C200008950C94261085988D9A84988C9A8FB16B
:102C300085FB882780F97C990EC090E0892B8093D2
:102C4000CB019091000181E098279093C701891BE7
:102C50008093C601089592E0F1CFCF93E091CB012C
:102C6000EE0FEE0FE093CB014FB145FB882780F9C3
:102C70004FB144FB222720F944FF02C022E030E09C
:102C8000822BE82BE093CB01C091C701EF70F0E0FD
:102C9000E859FE4F80819091CA01890F8093CA0143
:102CA00020E0843074F0EC2F0C2E000CFF0BE85366
:102CB000FE4F80818F5F808360E08C2F0E94111611
:102CC00021E08091CA018D3F74F4EC2F0C2E000C92
:102CD000FF0BE853FE4F80818150808361E08C2F91
:102CE0000E94111621E08091CA01082E000C990B58
:102CF00064E070E00E9489338093CA01822FCF91F3
:102D00000895E091C701F0E0E853FE4F2081FC01F7
:102D100020830895FF920F931F93CF93DF93D09159
:102D2000C6010D2F10E008531E4FFC01C081F801B1
:102D30008081C81BFC2E80E01F147CF09C2FC7FDF7
:102D400090E0C91BC11114C08823E9F0DF91CF9135
:102D50001F910F91FF900C94411FFA94F80180810C
:102D60008F5F808360E08D2F0E94111681E0E4CF99
:102D7000CF5FF80180818150808361E08D2F0E94B8
:102D8000111681E0DFCFDF91CF911F910F91FF905E
:102D90000895CF92DF92EF92FF920F931F93CF93FC
:102DA000DF936C017B0164E670E088E70E94401CC1
:102DB000EC0197FD12C010E000E0F601E00FF11FFA
:102DC000849164E670E00E949C1CEC01892B29F43C
:102DD0000F5F1F4F0E151F0581F70E941F1DCE01AB
:102DE000DF91CF911F910F91FF90EF90DF90CF90E7
:102DF0000895EBECF2E080E092E0DF019C011D928F
:102E000021503040E1F7F093CC04E093CB048FEFF6
:102E10009FEF9093F8018093F70108950E94290F86
:102E20008093F30180FD0FC080E88093F2010E943F
:102E30003A1C6DE070E08CED96E10E94C916892B7A
:102E400021F080E0089580E2F0CF8091F30163E00B
:102E500070E081FD18C089ED96E10E94C916892BAA
:102E600081F76DE070E089EC96E10E94C916892B2C
:102E700041F70E94F91681E08093F6018093F501F5
:102E80001092F401089586ED96E1E7CF2091F201CA
:102E900036E0839FC0011124629F800D911D112493
:102EA000811522E0920714F090E080E085539D4F59
:102EB0009093CC048093CB0408952091CB0430915F
:102EC000CC04255C32404091F201642F70E0C901CE
:102ED0000E947533481B463010F4240F311D211514
:102EE00082E0380710F030E020E025533D4F30936A
:102EF000CC042093CB0408951F93CF93DF93162F18
:102F00008A3031F481E0DF91CF911F910C94F61754
:102F10008D3011F480E0F7CFC091CB04D091CC0478
:102F200096E0FE01ACECB1E001900D929A95E1F7CC
:102F3000803EC8F086E0FE0111928A95E9F71111F2
:102F40001EC0C091CB04D091CC0446E050E0BE013D
:102F50008CEC91E00E94ED33892BF9F4DF91CF9155
:102F60001F910C945D17F6E08F9FB00111246751FB
:102F7000794E46E050E0CE010E94E433E0CFE0918C
:102F8000CB04F091CC049F012A5F3F4F2E173F07DF
:102F9000C1F2808180958193F9CFCB5CD240CE0184
:102FA00025E0969587952A95E1F721E030E0A90183
:102FB00002C0440F551F8A95E2F7CA014091F701FC
:102FC0005091F801842B952B259645E0D695C79511
:102FD0004A95E1F702C0220F331FCA95E2F7822B10
:102FE000932B9093F8018093F701B8CFCF93382FAC
:102FF000E091CB04F091CC04EB5CF2402091F20123
:10300000622F70E0CF010E947533281B822F33237B
:1030100069F066E00E946933C82FC15010F4CF9167
:10302000089560E080E20E947C17F7CF9F01280F8F
:10303000311D2115324018F080E0F0E0E0E08E0F05
:103040009F2F911D85539D4F9093CC048093CB046B
:10305000E6CFFF920F931F93CF93DF93EC01F62EF1
:10306000FC0101900020E9F78F0101501109C01700
:10307000D10730F0DF91CF911F910F91FF9008950C
:103080006F2D89910E947C17F2CF1F93CF93DF930E
:10309000EC01162FFE018491811104C0DF91CF91C4
:1030A0001F910895612F0E947C172196F3CFCF9333
:1030B000DF932091CB043091CC042B5C3240A901EA
:1030C000460F571F4130524020F060E072E0621B13
:1030D000730B4091F7015091F801FC01C901620F97
:1030E000731FC1E0D0E08617970738F05093F801BE
:1030F0004093F701DF91CF9108952491DC01A5530E
:10310000BD4F3C91321781F02C939C01A5E0369580
:103110002795AA95E1F7DE0102C0AA0FBB1F2A95E9
:10312000E2F79D014A2B532B01963196DCCF80911B
:10313000F5019091F601992361F0811108C062E0D8
:1031400070E087EC96E10E94C916892B19F08091F6
:10315000F501089581E08093F501F9CF2F923F9218
:103160005F926F927F928F929F92AF92BF92CF9217
:10317000DF92EF92FF920F931F93CF93DF93809193
:10318000F601882369F02091F7013091F8012115AB
:10319000310531F08091F40161E070E0882399F00D
:1031A000DF91CF911F910F91FF90EF90DF90CF9023
:1031B000BF90AF909F908F907F906F905F903F9067
:1031C0002F9008958F5F082F10E01B01082E02C07A
:1031D000220C331C0A94E2F7A90142215321452B0A
:1031E00089F39091F30190FD44C08295880F807619
:1031F000809303019801369527953695279520935E
:103200000601815E809304011092070124E630E0FC
:1032100047E050E061E071E088E70E94CB1C892B19
:1032200009F0BECFA80125E0440F551F2A95E1F70C
:103230008091F30180FD2BC045535D4F04E610E003
:1032400020E230E060E488E70E94F21C892B09F05C
:10325000A7CF0E949718E101C095D0958091F70102
:103260009091F801C823D923D093F801C093F701B6
:1032700097CF880F880F880F809303011092060163
:10328000895F8093040183E080930701BFCFE2ED63
:10329000F1E080E2DF011D928A95E9F7ACE7B1E049
:1032A00008E711E080E8C82E81E0D82E97E0592E7B
:1032B000772473948D91E80129918E01240F352F85
:1032C000311D25533D4FE82FF0E0EE52FE4F90E0C8
:1032D00080E0652C681A872C082E01C0880C0A949F
:1032E000EAF77901A12CE701B9907E01B820662D9B
:1032F0006A196770962E062E000C770BDB2D01C025
:10330000DD0F9A94EAF771956195710967707727D7
:1033100001C0B6946A95EAF7BD2A6081962E9B2873
:103320009082A39468E0A612DECF01963196883091
:10333000910579F6CA16DB0609F0BCCF04E610E069
:1033400020E230E042ED51E07DCF8091F501909197
:10335000F601911103C091E089270895882369F04F
:1033600062E070E085EC96E10E94C916892B19F0A5
:103370008091F50108951092F5018091F501EBCF50
:103380008091F601882341F060E080E00E944617BA
:103390000E94590F0C94AE1808950F931F93CF936A
:1033A000DF93C42FD22FFC0182818823C9F0409380
:1033B000FB010E94652A9093FA018093F90180E253
:1033C0008C0F883008F050C0C77081E001C0880FB2
:1033D000CA95EAF7DF91CF911F910F910C94EA20E3
:1033E0001091FB01141335C08091F9019091FA01FD
:1033F0000E947D2A8436910560F5C0E2CD0F1D172D
:10340000B9F080E2810F883040F4177081E001C08C
:10341000880F1A95EAF70E94F120C83048F481E03D
:103420009D2F977001C0880F9A95EAF70E94EA20B5
:10343000802F0E94E220C830B8F4D77081E001C02C
:10344000880FDA95EAF7DF91CF911F910F910C94D5
:10345000F12080E28C0F883038F4C77081E001C021
:10346000880FCA95EAF7EFCFDF91CF911F910F91A7
:1034700008950F939C01CB01243F4CE5340759F18B
:10348000A8F4293DFCE53F0701F12A3D4CE534074E
:10349000D1F1283D3C4591F406E221EE41EE68ED84
:1034A0007CE50E94CD1980E00F910895263FFCE550
:1034B0003F07E9F0B0F0273F3C45F9F0FC0182817D
:1034C000882339F11092FB01EFCF07E225EE45EE9C
:1034D00069ED7CE5E6CF06E221EE40EE64EF7CE5A7
:1034E000E0CF07E225EE44EE65EF7CE5DACF06E2B9
:1034F00021EE42EE66EF7CE5D4CF07E225EE46EE04
:1035000067EF7CE5CECF08E221E045EE6AED7CE591
:10351000C8CF81E0C9CFCF93DF93EC01FB0182815B
:10352000882309F419C1C230FCE5DF07C0F1C631B8
:103530009CE5D90730F09E012B5F3C4529303105D1
:1035400070F50E94F8289093D6048093D504C0317A
:10355000ECE5DE0709F4CFC008F05BC0C8308CE5AD
:10356000D80709F4B6C088F5C430ECE5DE0709F4E5
:10357000A8C0C0F4C2308CE5D80709F49CC0809183
:10358000D5048260C330DC4509F498C08091D5042D
:103590009091D6040E9406290E944B2380E0DF917F
:1035A000CF9108958091D5048061C630ECE5DE07A7
:1035B00009F484C08091D5048860C730DC4508F4E4
:1035C0007DC08091D504806279C0CC308CE5D8076D
:1035D00009F489C070F48091D5048C60CA30ECE5A0
:1035E000DE0709F46BC008F478C08091D5048E7FA3
:1035F00065C0CE308CE5D80709F479C08091D50438
:103600008B7FCF30DC4508F459C08091D5048F7E84
:1036100055C0CC3FECE5DE0709F457C030F5C331A7
:103620008CE5D80709F46FC078F4C131ECE5DE070A
:1036300009F465C0C231DC4509F0A8CF0E944B23D4
:103640008091D5048F773AC0C5318CE5D80709F44D
:1036500062C008F476C08091D6048160CB3FDC451F
:1036600009F094CF8093D60491CFC115FDE5DF0713
:1036700009F44DC088F48091D6048D7FCE3F9CE53F
:10368000D90781F38091D6048E7FCF3FDC4550F37C
:103690008091D6048360E6CFC230FDE5DF0709F4F0
:1036A00059C008F444C080E0C330DD4509F06ECF56
:1036B0000E948B296BCF8091D50481608093D504C3
:1036C00065CF8091D5048460F9CF8091D604826063
:1036D000C9CF8091D5048064F1CF0E944B238091A3
:1036E000D5048068EBCF8091D5048D7FE7CF8091A2
:1036F000D504877FE3CF8091D5048F7DDFCF809184
:10370000D5048F7BDBCF8091D504837FD7CF809189
:10371000D6048C7FA7CF8091D50482FB992790F99E
:1037200021E0922790FB82F990FB83F9C7CF80912B
:10373000D604982F909591708E7F892B90FB81F9FC
:1037400091CF0E944B239091D504892F97FB87F945
:103750008058B4CF81E0ACCF81E021CFCF93DF930D
:10376000EB0186319C4511F50E9441289A819923ED
:1037700099F08A7A91E009F490E09093FC0181112C
:1037800009C089E20E941C280E94802880E0DF9105
:10379000CF91089585E3F6CF8091FC01811104C09B
:1037A00089E20E942328F0CF85E3FBCF81E0EFCFB1
:1037B00061E070E088E091E00C94861D61E070E0CB
:1037C00088E091E00C948F1DCF93DF93D62FC72F05
:1037D00090E080E00E94681E009729F5ED2FFC2FF5
:1037E000DC01AD5FBD4F2C91219301968530910591
:1037F000B9F788E092E00E948A160E944D158093E6
:1038000002020E94F22A6E5F7F4F8F4F9F4F60939C
:10381000FE017093FF01809300029093010281E00A
:10382000DF91CF91089580E0FBCFCF93DF93D62F28
:10383000C72F6091FE017091FF018091000290916D
:1038400001020E94D52AED2FFC2F90E080E021910B
:10385000DC01AD5FBD4F2C93019685309105B9F722
:1038600088E092E00E94811680910202DF91CF9160
:103870000C944A151092B9008CE08093B80008951A
:10388000EF92FF920F931F93CF93DF93182FEB01CB
:103890001092BC0084EA8093BC000E94652A7C01DF
:1038A0008091BC0087FF27C08091B900887F883055
:1038B00029F08091B900887F8031D9F51093BB0041
:1038C00084E88093BC000E94652A8C018091BC0032
:1038D00087FF24C02091B900287F90E080E0283144
:1038E000B1F081E090E0203411F490E080E0919517
:1038F000819591090CC0CF3FDC0791F20E94652AA7
:103900008E199F098C179D0758F28EEF9FEFDF915C
:10391000CF911F910F91FF90EF900895CF3FDC075B
:10392000A9F20E94652A801B910B8C179D0770F2EB
:10393000ECCF8FEF9FEFEBCF0F931F93CF93DF93DE
:10394000EB018093BB0084E88093BC000E94652A51
:103950008C018091BC0087FF11C02091B900287FA5
:1039600081E090E0283211F490E080E0919581951B
:103970009109DF91CF911F910F910895CF3FDC07FF
:1039800041F30E94652A801B910B8C179D0708F359
:103990008EEF9FEFEECFCF92DF92EF92FF920F93D9
:1039A0001F93CF93DF936B018A017901B9010E94C4
:1039B000401CE6010C0D1D1DC017D10761F424E960
:1039C0002093BC00DF91CF911F910F91FF90EF905A
:1039D000DF90CF90089597FDF2CFB70189910E94B3
:1039E0009C1CEACFCF92DF92EF92FF920F931F932E
:1039F000CF93DF93C62F6A017901B8010E94401C62
:103A000097FD0CC0B8018C2F0E949C1CE601EC0CA9
:103A1000FD1CCE15DF0511F097FF0CC024E92093A3
:103A2000BC00DF91CF911F910F91FF90EF90DF903D
:103A3000CF900895B80189910E949C1CEACF84E937
:103A40008093BC0008958EE14A9B02C08150E1F74B
:103A50004A9BFECF08955A9880E28A95F1F75A9AC8
:103A60000895FC013BE03A95F1F720E090E080E01A
:103A700031E040E14A95F1F7880F4A9B02C081602E
:103A8000232742E04A95F1F7000040E14A95F1F71B
:103A90009F5F6913EECF90E19A95F1F799B132E00B
:103AA0003A95F1F7000040E14A95F1F792FB99272A
:103AB00090F992272081920F90830895EF92FF92C0
:103AC0000F931F93CF93DF930F92CDB7DEB7198279
:103AD0008C017C01E60EF11C0E151F0561F481E0DE
:103AE0009981911180E00F90DF91CF911F910F91FB
:103AF000FF90EF9008950E94231D68E0CE0101968B
:103B00000E94311DF80181938F01E6CF90930B0243
:103B100080930A0260930902529A5A9A08959093E8
:103B20000B0280930A026093090252985A9AEA9A09
:103B3000E9E6F0E080818F7C808308956150770B07
:103B400091E001C0990F6A95EAF720E031E0911108
:103B500008C0222391F05A9A80E28A95F1F75A9888
:103B60000895492F482339F05A9A232740E24A956D
:103B7000F1F79695ECCF5A98F9CF5A98EDCFFF927E
:103B80000F931F93CF93DF93EC018C01060F111D50
:103B9000C017D10731F4DF91CF911F910F91FF90A2
:103BA0000895F9900E942B1D68E08F2D0E949E1DA4
:103BB000EFCF1F920F920FB60F9211240F931F9306
:103BC0002F933F934F935F936F937F938F939F9325
:103BD000AF93BF93EF93FF93CF93DF930F92CDB744
:103BE000DEB719820E94231D67E0CE0101960E9474
:103BF000311D082F069506950695982F929595707C
:103C0000202F2570920F292F2370969596958770F7
:103C1000920F891344C08981811141C080910902AA
:103C20008017E8F120E12A95F1F75A9A529A82E03A
:103C30008A95F1F700C0A8E00A9FC0011124009105
:103C40000A0210910B02080F191F5A98F80165819A
:103C5000662321F0868197810E94BF1D0E942B1D43
:103C6000F0E1FA95F1F75A9852985A9A20E12A957C
:103C7000F1F7D80112966C911297662331F11396E1
:103C80008D919C910E945E1DD801ED91FC9188233D
:103C900011F088E001C082E080830E94231D0F9014
:103CA000DF91CF91FF91EF91BF91AF919F918F9154
:103CB0007F916F915F914F913F912F911F910F9144
:103CC0000F900FBE0F901F901895ED91FC91E1CFD2
:103CD0000F931F93CF93DF932091090228171906A2
:103CE0000CF471C08C0193E0000F111F9A95E1F75D
:103CF000C0910A02D0910B02C00FD11FF894529AC2
:103D00005A9825E02A95F1F70000982F969595701E
:103D10008570980F892F837096959695980F092B2B
:103D20000E942B1D00C067E0802F0E949E1D80E135
:103D30008A95F1F752985A9A4A9B17C087E090E00B
:103D40004A9915C06D81662321F18E819F810E9461
:103D50005E1D81111EC0529A5A9AE881F98182E053
:103D60008083789482E090E00DC000C0E5CF019799
:103D700071F4529A5A9AE881F98181E080837894AB
:103D800081E090E0DF91CF911F910F91089500C0E5
:103D9000D7CF0E94231D20E22A95F1F75A98529A14
:103DA00080E18A95F1F76A81662321F08B819C81FD
:103DB0000E94BF1D0E942B1DE881F981108278941A
:103DC00090E080E0DFCF84E090E0DCCF90931102C0
:103DD000809310020895E0911002F0911102309743
:103DE00021F00190F081E02D099480E00895E091A8
:103DF0001002F0911102309721F00280F381E02D42
:103E00000994089520910E0230910F022817390766
:103E100071F090930F0280930E02E0911002F091E6
:103E20001102309721F00680F781E02D0994089562
:103E300020910C0230910D022817390771F09093F0
:103E40000D0280930C02E0911002F0911102309764
:103E500021F00084F185E02D099408950E94712AD3
:103E60006093250270932602809327029093280284
:103E70006093210270932202809323029093240284
:103E800008950E94712A6093250270932602809300
:103E900027029093280260931D0270931E02809364
:103EA0001F0290932002089585B7806885BF85B76B
:103EB000806885BF0895089508950C945B1F089548
:103EC0000C945F1F0E94541F83EE98E20E941E2BE9
:103ED0000E945C1F0C945D1F0C941B15089508959F
:103EE0000E945C2A0E94CC2A0E94B11380E00E94AA
:103EF0000E170E94232B0E9413160C94601FAF9282
:103F0000BF92CF92DF92EF92FF920F931F93CF93C6
:103F1000DF93CDB7DEB72A970FB6F894DEBF0FBE9A
:103F2000CDBF0E946E1F0E946F1F0E9462148111FC
:103F30000E942E1F83E1A82E82E0B82E10E000E040
:103F4000C02E802F0E948A13E82EF501F1905F01A8
:103F5000F81609F453C080919F0281FD0E949013CE
:103F60008F2D8E25D12CFF24F394982F9F2109F4B7
:103F700040C00E946C1F882399F0DE82CF82EF2020
:103F800081E009F480E088870E94652A8160782FAB
:103F90009A8789874E815F8168858A850E9426205D
:103FA000F801ED5EFD4F8081F826F0820E942D160B
:103FB00081110E94411F0E94C0190E94EB1E909126
:103FC0001202891791F10E94EB1E809312022A9629
:103FD0000FB6F894DEBF0FBECDBFDF91CF911F911A
:103FE0000F91FF90EF90DF90CF90BF90AF900C9427
:103FF000A211D394FF0CF6E0DF12B7CF0F5F1F4F73
:104000000A30110509F09CCF8FEF89838A831B82C8
:104010000E94652A8160782F9D838C8349815A8113
:104020006B818D810E942620C1CF2A960FB6F8940D
:10403000DEBF0FBECDBFDF91CF911F910F91FF90DB
:10404000EF90DF90CF90BF90AF900895DF92EF9206
:10405000FF920F931F93CF93DF93CDB7DEB72B97CC
:104060000FB6F894DEBF0FBECDBF7A878B87F42ED4
:10407000052F162FE72ED82E61110E9461281E826F
:104080001D827E2DEC82DD824F2D502F612F8D2DD4
:104090009E812B960FB6F894DEBF0FBECDBFDF9189
:1040A000CF911F910F91FF90EF90DF900C94AF256F
:1040B000FC01808191810C94EE27CF93C82F882337
:1040C00009F43FC08CEF8C0F813AA0F46C2F8091E3
:1040D0001001909111010E94A229882329F08C2FB0
:1040E0000E9423280E9480288C2F0E941C28CF9198
:1040F0000C94802880E28C0F883048F4C77081E0EF
:1041000001C0880FCA95EAF70E944428F0CFEBE57A
:10411000EC0FE33040F4F0E0E255FE4F808190E098
:10412000CF910C94021FC85AC73158F4EC2FF0E01D
:10413000EE0FFF1FE058FE4F80819181CF910C94CC
:10414000181FCF910895882329F19CEF980F913A79
:1041500020F40E9423280C94802890E2980F983035
:1041600050F4877091E001C0990F8A95EAF7892F82
:104170000E944A28F0CF9BE5980F933020F490E0FE
:1041800080E00C94021F885A873120F490E080E090
:104190000C94181F08951F93CF93DF93182FEB01F2
:1041A0000E945D20209731F4812FDF91CF911F91E4
:1041B0000C94A3208FE99FE00197F1F700C0000065
:1041C0002197F0CF6AE070E0893311F460E570E088
:1041D0000C94CB20882321F00E9444280C94802842
:1041E0000895882321F00E944A280C94802808957D
:1041F000BF92CF92DF92EF92FF920F931F93CF93D4
:10420000DF936C01D62FC72FFC0112810581029527
:104210000F700E943A28E82E8823A1F0E12E112386
:1042200089F08C2F807F803429F080E28D0FE12C83
:10423000883040F082E00E94CB280E943A2891E02A
:10424000E82EE926BC2EB2949FE0B922FBE0FB15D4
:1042500098F1EB2DF0E0E95FF84C0C94BC330C2F97
:104260000F70C07F11F00295007F1123A9F0002389
:1042700059F080E28D0F883010F0D11109C0802FE5
:104280000E9444280E9480288D2F0E945D2014C027
:10429000802F0E945428F6CF8D2F0E94A320002348
:1042A00059F080E28D0F883010F0D1112BC0802F93
:1042B0000E944A280E948028EB2DE850FF0B34977B
:1042C00020F40E94EB1E0E94A211EE2009F488C186
:1042D0000E94362880FD84C1F60112820E94302897
:1042E0000E94B926C6010E9411230E943028DF9146
:1042F000CF911F910F91FF90EF90DF90CF90BF90E3
:104300000C94DA26802F0E945A28D4CF2C2F2F709D
:10431000F22EC07FC03219F0F29480EFF822DD2334
:1043200069F0D13049F1112391F1002351F1F601E7
:10433000858180FFA9CF8F70858323C0112381F0F1
:10434000011106C00E9467288F290E94EA20B4CF7D
:104350000130C1F70E9467288F290E946D28ACCFD9
:10436000011106C00E9476288F2D0E94F120A4CF53
:10437000013009F4A1CFF6CF112329F0063008F05F
:104380009BCF8F2DE2CF053008F096CFEDCF0023E5
:1043900059F3D93309F01CC1FFEF27EE33E0F15098
:1043A00020403040E1F700C000008D2F0E94A32084
:1043B00083CF8C2F86958695837069F0813009F0C4
:1043C0007BCF8D2F9C2F9370111102C090E080E065
:1043D0000E94181F71CF8D2F9C2F9370111102C056
:1043E00090E080E00E94021F67CF8C2F837009F05D
:1043F00041C0111161CF4D2F429546954770440F32
:10440000440F0D2F0F7010E030E020E0042E04C0A8
:10441000000F111F221F331F0A94D2F760E070E0D3
:10442000CB01D4FF0FC06FE070E080E090E004C0EB
:10443000660F771F881F991F4A95D2F76095709570
:1044400080959095C695C695C370602B712B822B75
:10445000932BC23049F058F4C13019F00E946D26F8
:104460002BCF0E945B2628CF0E947F2625CF0E945B
:10447000592622CF8695112311F08C2F8170882325
:1044800009F41ACF4D2F429546954770440F440FBB
:104490000D2F0F7010E030E020E0042E04C0000F5C
:1044A000111F221F331F0A94D2F760E070E0CB0186
:1044B000D4FF0FC06FE070E080E090E004C0660FB2
:1044C000771F881F991F4A95D2F760957095809540
:1044D0009095C695C695C370602B712B822B932B3C
:1044E000C23049F058F4C13019F00E943027E4CEB0
:1044F0000E941E27E1CE0E944227DECE0E94932614
:10450000DBCECF70112329F08C2F0E94B9268D2F7E
:104510001CCF8D2F0E94F1208C2F0E94DA26CCCE4A
:10452000D23F89F160F4D03FC9F0D13F29F1112386
:1045300009F442C00111A8CE8C2F8F7121C0D33F46
:1045400039F1D43FA1F7112369F1CF718C2F0E946B
:10455000B92663E08C2F0E94B628AECE112341F01D
:10456000053008F0A9CE8C2F8F710E94FD26A4CEB5
:10457000063008F0A1CEF7CF8C2F8F71112369F28E
:104580000E94B92699CE8C2F8F711123C9F3C5CF04
:10459000112329F08C2F8F710E94A4268DCE0E94AA
:1045A0009F268ACE81E00E94CB28023008F484CE78
:1045B00082E00E94CB2880CE002379F0D93341F4E9
:1045C0009FEFE7EEF3E09150E040F040E1F7EBCEF3
:1045D0008FE39CE90197F1F7E6CE8C2F8F719DCF89
:1045E000DF91CF911F910F91FF90EF90DF90CF90CF
:1045F000BF9008950F931F93CF93DF93EC016881D1
:1046000079818A810E94F8278C010E9454270E9498
:104610005826B801CE01DF91CF911F910F910C94D4
:10462000F820CF93DF93EC018B819C81892B29F0BB
:104630008881998189238F3F59F4DF91CF91089523
:10464000CE010E94FA22CE01DF91CF910C949010FE
:10465000CE010E940B118111F3CF0E943A288823CA
:1046600061F38A81882349F382E0DF91CF910C9432
:10467000CB2890E080E00E94021F90E080E00E9442
:10468000181F0E9461280E9464280C9480280E94B0
:104690002A280C9439230E9451280C944723E92F8F
:1046A000E295EF70E250EE3070F4F0E0ED5EF84C21
:1046B0000C94BC33803F19F020F4883E20F481E054
:1046C0000895843FE1F380E00895883EC0F3813F80
:1046D000D1F7F5CF93FB882780F908950E94EE2744
:1046E0000C944F23CF93DF9300D000D00F92CDB71F
:1046F000DEB70F900F900F900F900F90DF91CF913A
:104700000895CF93DF9300D000D000D0CDB7DEB7AF
:1047100026960FB6F894DEBF0FBECDBFDF91CF91C6
:1047200008951F93CF93DF93C0912A0216E08091E2
:104730002B028C1304C0DF91CF911F910895D0E01C
:104740001C9FF0011D9FF00D1124E45DFD4F408181
:10475000518162817381848195810E948123219698
:10476000C770E5CF40915C0250915D0260915E029E
:1047700070915F0280916002909161020C9481239C
:104780001F93CF93DF9380916102807FA9F4809182
:104790005E02882389F080912A02C0912B026091E9
:1047A0005C0270915D02A0915F02B0916002D62F11
:1047B000D72316E0C81304C0DF91CF911F9108954D
:1047C00090E0109711F0DF3F19F401968770F2CF57
:1047D000189F9001199F300D1124F901E45DFD4FE0
:1047E00041814713F2CF40814613EFCF42814111FF
:1047F000ECCF438154814A1B5B0B4436510528F7AB
:10480000809161028F70806180936102F901EF5C99
:10481000FD4F80818F70806180838CE592E00E94E3
:104820001123DF91CF911F910C949123AF92BF92EE
:10483000CF92DF92EF92FF920F931F93CF93DF936C
:10484000CDB7DEB761970FB6F894DEBF0FBECDBF10
:104850008C0185E0F801DE011D9601900D928A958C
:10486000E1F7F80140815181E2808CE5C82E82E0B9
:10487000D82E60915F02709160026115710509F494
:104880004FC190915C0220915D02892F82238F3F5E
:1048900009F446C1A380B480F0905E02F501E61BE6
:1048A000F70BFF2009F40AC180916102382F307F95
:1048B000E436F10508F0C0C0311179C0FE2C251393
:1048C00023C0941321C0E1101FC08F7080618093BA
:1048D00061020E94B223C6010E94112380916102ED
:1048E000F80185838F2D61960FB6F894DEBF0FBE59
:1048F000CDBFDF91CF911F910F91FF90EF90DF908F
:10490000CF90BF90AF900895AB2829F0842F8523D6
:104910008F3F09F021C180E0F82FF170DF2E80FF7A
:104920003CC080912A0220912B0236E0821315C0F0
:104930004D875E878D859E850E94EE27292F2295C3
:104940002F702230F0F0243018F59F70F1F0F8014C
:104950009581907FD1F4D12C1EC090E0389FF0015A
:10496000399FF00D1124E45DFD4F6181651306C090
:104970006081641303C062816E110FC0019687705D
:10498000D5CF9F7011F0882331F3805E883018F303
:10499000C8010E941123FD2CA5CFEE2009F4A2CF5F
:1049A00080916102816080936102F12C9BCF25137D
:1049B00014C0941312C0E11010C0F8018583C8011F
:1049C0000E94112386E0F801ACE5B2E001900D925F
:1049D0008A95E1F70E94B22385CF4D875E878D854A
:1049E0009E850E946E23882319F1EE2009F18091A3
:1049F0006102803270F020915C0230915D02388754
:104A00002F831986BB86AA868C87CE0107960E94C3
:104A1000112386E0F801ACE5B2E001900D928A9591
:104A2000E1F70E94C0230E94B223FF24F3945ACFDF
:104A3000C8010E941123F9CF311113C07A2DB98A10
:104A4000A88A6E2D89890E9472238CE592E00E94CB
:104A5000112386E0F60111928A95E9F70E94B223AC
:104A6000A4CF25130FC094130DC0E1100BC0F801A3
:104A70008583C8010E94112386E0F60111928A9570
:104A8000E9F730CF4D875E878D859E850E946E2326
:104A9000882371F2EE2061F280916102803208F485
:104AA000B8CF20915C0230915D023A8329831B824A
:104AB000BD82AC828E83CE010196A9CFE436F1058A
:104AC00010F5FE2CEE2009F4B3CF25130BC0941380
:104AD00009C086E0F801ACE5B2E001900D928A953C
:104AE000E1F700CF4D875E878D859E850E946E23FE
:104AF00081118FCF80916102816080936102C80132
:104B00000E941123EFCE7A2DB98AA88A6E2D898949
:104B10000E94722386E0F60111928A95E9F75ACF36
:104B2000EE2009F485CF4D875E878D859E850E9496
:104B30006E23F82E882309F47BCF86E0F801ACE5DC
:104B4000B2E001900D928A95E1F78CE592E00E9427
:104B500058200E94C0233ECF81E08E25DDCE1F93DA
:104B6000CF93DF93CDB7DEB72C970FB6F894DEBFA7
:104B70000FBECDBF4F83588769877A878B879C8705
:104B8000CE0107960E941624882369F08A859B85AA
:104B9000892B39F04F815885842F85238F3F09F069
:104BA00071C016E05FC086E0FE013796DE01119607
:104BB00001900D928A95E1F78A859B85892B89F36F
:104BC0008F81988589238F3F61F320912B0230E0FC
:104BD000C90101968770992740912A024817190642
:104BE00071F40E944B2310922B0210922A0286E04D
:104BF000ECE5F2E0DF011D928A95E9F7D2CF96E06D
:104C0000929FD001939FB00D1124A45DBD4FFE0172
:104C1000319601900D929A95E1F780932B020E94B4
:104C20009123BFCF819FC0011124845D9D4F0E94BD
:104C300016248823E9F0E0912A021E9FF001112436
:104C4000E45DFD4F40815181628173818481958152
:104C50000E94812380912A0290E001968770992713
:104C600080932A0280912A0290912B028913DACF35
:104C70002C960FB6F894DEBF0FBECDBFDF91CF915B
:104C80001F91089569857A858B859C850E94812373
:104C900088CF08950C9449260E944A2660938E027C
:104CA00070938F0280939002909391020C94392319
:104CB00008950C944C260F931F9300918E0210912F
:104CC0008F022091900230919102602B712B822BE8
:104CD000932B1F910F910C944C260F931F930091CF
:104CE0008E0210918F0220919002309191026023E8
:104CF0007123822393231F910F910C944C260F93C1
:104D00001F9300918E0210918F022091900230919A
:104D1000910260277127822793271F910F910C948E
:104D20004C260C94210F0E94912660938A02709366
:104D30008B0280938C0290938D020C94392360E057
:104D400070E0CB010C9493260F931F9341E050E049
:104D500060E070E08A019B0104C0000F111F221F58
:104D6000331F8A95D2F7C901B8011F910F910C9496
:104D700093260F931F9341E050E060E070E004C081
:104D8000440F551F661F771F8A95D2F780918A02BC
:104D900090918B02A0918C02B0918D028A019B01AF
:104DA000082B192B2A2B3B2BC901B8011F910F91FE
:104DB0000C9493260F931F9341E050E060E070E065
:104DC00004C0440F551F661F771F8A95D2F7CB0189
:104DD000BA01609570958095909500918A02109126
:104DE0008B0220918C0230918D02602371238223EB
:104DF00093231F910F910C9493260F931F9341E0DF
:104E000050E060E070E004C0440F551F661F771F3C
:104E10008A95D2F780918A0290918B02A0918C02A0
:104E2000B0918D028A019B01082719272A273B2769
:104E3000C901B8011F910F910C9493260F931F93F2
:104E400000918A0210918B0220918C0230918D0288
:104E5000602B712B822B932B1F910F910C94932617
:104E60000F931F9300918A0210918B0220918C0264
:104E700030918D0260237123822393231F910F9120
:104E80000C9493260F931F9300918A0210918B022A
:104E900020918C0230918D02602771278227932701
:104EA0001F910F910C9493260895E92FEE0FE90FAF
:104EB000EE0F8E0F982F977041E001C0440F9A9526
:104EC000EAF786958695869595E0899FF0011124ED
:104ED000EE59FD4F30E020E070E05191DF01119775
:104EE000CB01022E02C0969587950A94E2F7817055
:104EF00081958527842385278C932F5F3F4F25300D
:104F0000310559F70895E92FEE0FE90FEE0F8E0FD7
:104F1000982F977086958695869525E0829FF0015B
:104F20001124EE59FD4F50E040E080E0219130E047
:104F3000092E02C0369527950A94E2F7217033278F
:104F4000042E01C0220F0A94EAF7822B4F5F5F4FB5
:104F50004530510559F70895BF92CF92DF92EF92F5
:104F6000FF920F931F93CF93DF938C01C0908A021F
:104F7000D0908B02E0908C02F0908D0280918E0296
:104F800090918F02A0919002B0919102C82AD92AE3
:104F9000EA2AFB2ACFE1D0E0BC2ED701C6010C2EB5
:104FA00004C0B695A795979587950A94D2F780FD8A
:104FB0000EC0219788F7B12C8B2DDF91CF911F91D7
:104FC0000F91FF90EF90DF90CF90BF900895B801C0
:104FD0008C2F0E94BE11019761F3EECFCF93DF9328
:104FE000EC010E94AC27BE01DF91CF910C94BE1161
:104FF0001F93CF93DF93EB0190912902992331F016
:10500000CB01DF91CF911F910C94EE27882379F08B
:10501000CB010E94AC27182F682FCE010E94552784
:10502000BE01812FDF91CF911F910C94BE11CB0156
:105030000E948327182FF4CF682F80911001909140
:1050400011010C94D829682F8091100190911101C1
:105050000C94DA2980911001909111010C94DC29B3
:10506000809192028595859585950895809192020B
:105070008770089590919202977081E009F480E022
:10508000089580919E02089590919E02892B8093AD
:105090009E020895809590919E02982390939E027F
:1050A000089510929E02089590919D02892B8093FD
:1050B0009D020895809590919D02982390939D0262
:1050C000089510929D02089510929C020895809177
:1050D0009302089508950C946A289091930298176A
:1050E00021F0809393020C946B2808958091930291
:1050F000882329F01092930280E00C946B28089585
:10510000E0911001F091110180919E028083E09165
:105110001001F0911101808190919D02892B808373
:10512000E0911001F0911101808190919C02892BF6
:10513000808390919302992381F0E0911001F09186
:1051400011018081892B8083809110019091110140
:105150000E94902981110E947628809110019091DF
:1051600011010C94F71E08950C94B32898E0899FC0
:1051700090011124622B609392020E94B9268091C3
:1051800092028595859585950C94B428109292028B
:1051900080E00C94B42890919202809589238093AA
:1051A0009202282F277071F4282F082E000C330B41
:1051B0009217130639F08595859585950E94DA2614
:1051C0000C94C628089580E0089590E080E00E9445
:1051D000943621E08B3E9E4F09F020E0822F089507
:1051E00082E090E00C948C3683E090E00C948C3656
:1051F000CF9384E090E00E948C36C82F81E290E04B
:105200000E948C36982F8C2FCF910895CF93C92F61
:10521000682F84E090E00E949A366C2F81E290E043
:10522000CF910C949A36AB01BC018FE090E00C94C6
:10523000AC36AB01BC0183E190E00C94AC3660E08D
:1052400070E0CB010C94192960E070E0CB010E9462
:1052500013290C941F296BEE7EEF90E080E00E94F2
:10526000B83660E082E090E00E949A3660E083E029
:1052700090E00E949A3610928E0210928F02109245
:1052800090021092910260E084E090E00E949A36D1
:1052900060E081E290E00E949A3660E085E090E074
:1052A0000E949A3660E086E090E00E949A366FEFA6
:1052B00087E090E00E949A3640E050E0BA0188E032
:1052C00090E00E94AC3660E08DE090E00E949A365B
:1052D00040E050E0BA0188E190E00E94AC3660E026
:1052E00087E190E00E949A3640E050E0BA018CE1FC
:1052F00090E00E94AC3660E080E290E00E949A3636
:1053000040E050E0BA0188E190E00E94AC360C9495
:1053100024290C942B29682F8EE090E00C949A3667
:105320009C012E5F3F4FAC01485F5F4F80E0241728
:10533000350709F40895F90191919F019923B9F373
:105340008F5FF5CF662349F0FC01329608962191D4
:10535000261729F0E817F907D1F780E0089581E0D2
:1053600008959C01FC0132969FEF80E04191461721
:1053700051F09F3F19F4411101C0982F8F5F863083
:10538000A9F79F3F09F40895290F311D97FD3A951C
:10539000F90162830895FC01329608962191261343
:1053A00003C0DF0111971C92E817F907B9F70895B8
:1053B0000C94B1290C94CB29029626E0FC011192A1
:1053C0002A95E9F70895089508950C94E4298091A9
:1053D000DB04843049F10E94E52980E00E94A2119B
:1053E0001092A00288E190E020E40FB6F894A8950E
:1053F000809360000FBE2093600083B7817F84603C
:1054000083BF83B7816083BF7894889583B78E7F8D
:1054100083BF0FB6F894A89580916000886180934F
:105420006000109260000FBE08950895CF930E940F
:10543000E3290E9462140E94152AC0E08C2F0E946A
:105440008A13811105C0CF5FCA30C1F7CF9108958B
:1054500081E0FCCF08950C942A2A0E944B230E94DD
:10546000EB1E0E94A2110C942B2A1F921FB61F92B2
:1054700011248F939F93AF93BF938091A0028111CA
:1054800013C08091CD049091CE04A091CF04B0912F
:10549000D0044196A11DB11D8093CD049093CE04FC
:1054A000A093CF04B093D004BF91AF919F918F91FF
:1054B0001F901FBE1F90189582E084BD93E095BD9C
:1054C0009AEF97BD80936E0008952FB7F89480915E
:1054D000CD049091CE04A091CF04B091D0042FBF01
:1054E00008952FB7F8946091CD047091CE04809107
:1054F000CF049091D0042FBF08959C014FB7F8942A
:105500008091CD049091CE04A091CF04B091D004AD
:105510004FBF821B930B0895CF92DF92EF92FF92C1
:105520002FB7F894C090CD04D090CE04E090CF0473
:10553000F090D0042FBFA7019601261B370B480B14
:10554000590BCA01B901FF90EF90DF90CF900895F9
:1055500078941F921FB61F9211248F939F93AF933D
:10556000BF938091CD049091CE04A091CF04B091CF
:10557000D0040196A11DB11D8093CD049093CE045B
:10558000A093CF04B093D004BF91AF919F918F911E
:105590001F901FBE1F9018951092D1041092D20434
:1055A0001092D3041092D4040895CF92DF92EF9218
:1055B000FF926B017C010E941B1581110EC00E949D
:1055C000712AC61AD70AE80AF90AC092D104D09201
:1055D000D204E092D304F092D404FF90EF90DF90D5
:1055E000CF9008950F931F930E941B15882321F0DD
:1055F0001F910F910C94712A0E94712A0091D1047D
:105600001091D2042091D3043091D404600F711F03
:10561000821F931F1F910F91089587E797E790933B
:1056200001088093000888E19AE00FB6F894A895E5
:10563000809360000FBE90936000FFCF9093B30102
:105640008093B20108950E94E528811102C00E9452
:1056500089290E94F02880939F020E94F828909345
:10566000D6048093D5040E94F428682F70E090E05F
:1056700080E00E94592660918A0270918B0280918D
:105680008C0290918D020C9491268091A90208952C
:105690000895CF93DF9300D00F92CDB7DEB79091EE
:1056A000DB04943019F589837B836A8382E08093DD
:1056B000E9008FEF9091E800815095FD06C095EDCF
:1056C0009A95F1F700008111F5CF8091E80085FFF0
:1056D0000DC050E040E063E070E0CE0101960E9412
:1056E000412D8091E8008E778093E8000F900F9015
:1056F0000F90DF91CF910895BC0184E00C94492B69
:10570000BC0183E00C94492BCF93DF93EC0181E043
:105710008093E9008FEF9091E800815095FD06C0DD
:1057200095ED9A95F1F700008111F5CF8091E80091
:1057300085FF14C050E040E068E070E0CE010E94B8
:10574000412D8091E8008E778093E80088E0FE018B
:10575000A1EAB2E001900D928A95E1F7DF91CF9135
:1057600008958091DA04811109C00E94D12E0E940F
:105770002E2F8091E20084608093E20008951092C1
:10578000DA04089508950895089542E061EC81E0F7
:105790000E944D2E42E261EC82E00C944D2E8091ED
:1057A000DD04833009F45FC030F48130C1F1823010
:1057B00009F49BC008958A3009F487C08B3009F43E
:1057C0006DC0893009F04EC08091DC04813209F04F
:1057D00049C08091E0049091E104029708F042C032
:1057E0008091E800877F8093E8008091E80082FF45
:1057F00035C09091F3008091F200029729F48091D6
:10580000F1008B7F813021F48091F1008093A90217
:105810008091E8008B778093E8000C94812E809132
:10582000DC04813AF9F48091E800877F8093E800F6
:105830008091E0049091E104892B61F468E081EAB1
:1058400092E070E00E94902D8091E8008B77809329
:10585000E800089560E090E080E0F3CF8091DB0401
:105860008111C3CF08958091DC04813AD9F78091EA
:10587000E0049091E104892BA9F78091E800877FEB
:105880008093E8008091E80080FFFCCF80911C01AC
:105890008093F1008091E8008E77BDCF8091DC0489
:1058A000813201F78091E0049091E104892BD1F6D7
:1058B0008091E800877F8093E8000E94812E80918C
:1058C000DE0480931C010C944B238091DC04813214
:1058D00049F68091E800877F8093E8000E94812E3E
:1058E0008091DF048093AA0208958091DC04813ABC
:1058F00009F0B8CF8091E800877F8093E80080911D
:10590000E80080FFFCCF8091AA02C2CF84B7877FD6
:1059100084BF0FB6F894A895809160008861809349
:105920006000109260000FBE80E890E00FB6F8941F
:1059300080936100909361000FBE0E94621F0E94DD
:10594000D12E0E942E2F8091E20084608093E2008D
:1059500078940E94B7310E94701F82E191E00E940A
:10596000E61E8091DB048530A9F00E947F1F0E9413
:105970006E1F0E946F1FF5CF0E94E7298091D90406
:10598000882341F00E94162A882321F00E942B2DA3
:105990000E944B238091DB04853071F30E942D2AF5
:1059A000E4CF0C94D32C292F33272330310519F160
:1059B00068F42130310509F444C02230310509F47E
:1059C00045C090E080E030E020E025C02132310584
:1059D00049F122323105A9F780E490E02EEC3CE158
:1059E00061157105C1F082E390E02CE93CE1613082
:1059F000710589F0E6CF99278130910581F00097F4
:105A000029F00297F1F6E9E2FCE102C0EBE4FCE1E7
:105A1000849190E09F01FA01318320830895E9E3A6
:105A2000FCE1F6CF89E090E021E63CE161157105EB
:105A300091F389E090E02AE73CE16130710559F388
:105A4000C0CF82E190E02AE83CE1E5CF8BE390E033
:105A50002FE43CE1E0CF80E189BD82E189BD09B45A
:105A600000FEFDCF8091D8008F7D8093D80080917B
:105A7000E00082608093E0008091E00081FDFCCF37
:105A80000895AF92BF92CF92DF92FF920F931F9330
:105A9000CF93DF936C01EB018A010E94A02EF82EB8
:105AA000811123C00115110539F0F8018081918120
:105AB000C81BD90BC80ED91EB12CA12C2097A9F058
:105AC0008091E80085FD22C08091E8008E77809368
:105AD000E80001151105A1F0F80180819181A80E5F
